:020000040800F2
:10000000480A0020D901000809220008E118000868
:10001000AD1F000897060008FD270008000000003B
:100020000000000000000000000000006F23000836
:10003000AB060008000000004123000871230008FF
:10004000F3010008F3010008F3010008F3010008C0
:10005000F3010008F3010008F3010008F3010008B0
:10006000F3010008F3010008F3010008F3010008A0
:10007000F3010008F3010008F3010008F301000890
:10008000F3010008F3010008F3010008F301000880
:10009000F3010008F3010008F3010008F301000870
:1000A000F3010008F3010008F3010008F301000860
:1000B0001D240008F3010008F3010008F301000803
:1000C000F3010008F3010008F3010008F301000840
:1000D000F3010008F9270008F3010008F301000804
:1000E000F3010008F3010008F301000800F002F832
:1000F00000F062F80AA090E8000C82448344AAF160
:100100000107DA4501D100F057F8AFF2090EBAE85D
:100110000F0013F0010F18BFFB1A43F0010318473B
:100120003C3B00005C3B00000A444FF0000C10F820
:10013000013B13F0070408BF10F8014B1D1108BF65
:1001400010F8015B641E05D010F8016B641E01F805
:10015000016BF9D113F0080F1EBF10F8014BAD1C55
:100160000C1B09D16D1E58BF01F801CBFAD505E073
:1001700014F8016B01F8016B6D1EF9D59142D6D3CD
:10018000704700000023002400250026103A28BFF5
:1001900078C1FBD8520728BF30C148BF0B607047F9
:1001A000642900F09D80752900F09A800020704736
:1001B0001FB51FBD10B510BD00F004FA1146FFF7C2
:1001C000F7FF02F047FD00F022FA03B4FFF7F2FF59
:1001D00003BC00F0E9F900000948804709480047DE
:1001E000FEE7FEE7FEE7FEE7FEE7FEE7FEE7FEE7E7
:1001F000FEE7FEE704480549054A064B7047000044
:10020000D5230008ED00000848040020480A00201B
:100210004806002048060020B2F120030AD5C2F1AA
:10022000200320FA02F001FA03F321FA02F140EA76
:100230000300704721FA03F04FF0000170470000FF
:100240000FB47CB50C0009AA009001D02044401ED8
:10025000084B7B4469460190089800F068F9054610
:100260001CB10020694600F075F928467CBC5DF899
:1002700014FB0000090300002DE9F0410E4604467E
:10028000002020622046E168884730B3252805D049
:10029000D4E901219047206A401CF2E7E16820463A
:1002A00000278847050018D0A5F14100192802D879
:1002B00020354FF400673246294620462760FFF775
:1002C0006FFF40B1012804D0F61D26F0070608365E
:1002D000D8E7361DD6E72846DAE7206ABDE8F08180
:1002E0002DE9F0410646002410687529314616A50F
:1002F00010D0AFF30080002802DA404213A507E0D7
:1003000031688A0701D512A502E0490704D511A575
:10031000012401E0AFF3008000210A2206F1240746
:1003200009E0B0FBF2FCB0FBF2F302FB1C00303042
:1003300078541846491C0028F3D123462A463046F3
:10034000BDE8F04100F094B8000000002D0000006E
:100350002B000000200000000EB5054614460E4696
:1003600013A000F00FF9284600F00CF916A000F0D9
:1003700009F9304600F006F915A000F003F9002154
:100380008DF80B100A210DF10A008DF80A1008E013
:1003900094FBF1F201FB124294FBF1F4303200F8CD
:1003A000012D002CF4DC00F0EDF800F0E0F8000086
:1003B0002A2A2A20617373657274696F6E206661E0
:1003C000696C65643A2000002C2066696C65200029
:1003D0002C206C696E6520004FF000020429C0F0EB
:1003E000128010F0030C00F01B80CCF1040CBCF167
:1003F000020F18BF00F8012BA8BF20F8022BA1EBB9
:100400000C0100F00DB85FEAC17C24BF00F8012B9D
:1004100000F8012B48BF00F8012B70474FF0000295
:1004200000B5134694469646203922BFA0E80C50EA
:10043000A0E80C50B1F12001BFF4F7AF090728BFC5
:10044000A0E80C5048BF0CC05DF804EB890028BF41
:1004500040F8042B08BF704748BF20F8022B11F06A
:10046000804F18BF00F8012B7047704770477047E6
:100470002DE9F0470D4699469246044600F12408BE
:100480000168880604D5E06921F01001216000E0D0
:100490000120A84201DD471B00E00027A1697A196D
:1004A00002EB0900081AA0612078C00602D4204699
:1004B000AFF30080002608E0D4E901211AF8060015
:1004C0009047206A401C761C20624E45F4DB207861
:1004D000C0060AD52046AFF3008006E0D4E901212A
:1004E00030209047206A401C2062381EA7F1010787
:1004F000F4DC07E0D4E9012118F805009047206AF0
:10050000401C2062281EA5F10105F3DC2046AFF354
:1005100000802078000602D50220BDE8F087012087
:10052000FBE7000001694A1C02610878704700B5CA
:100530008FB0CDE901310021059105497944CDE91C
:10054000031011466846FFF797FE0FB000BD00008C
:10055000E5FFFFFF0A6802F8010B0A607047D1E966
:1005600000239A4202D2531C0B601070704710B5E2
:10057000002000F01FF8FFF71DFEBDE8104001202D
:1005800000F012B810B5044602E0641C00F004F854
:1005900020780028F9D110BD08B569468DF8000013
:1005A0000320ABBE08BD000001491820ABBEFEE72A
:1005B0002600020010B500F039F8BDE8104000F048
:1005C0002FB87047754600F049F8AE4605006946F9
:1005D000534620F00700854618B020B5FFF70AFE05
:1005E000BDE820404FF000064FF000074FF0000834
:1005F0004FF0000B21F00701AC46ACE8C009ACE8B5
:10060000C009ACE8C009ACE8C0098D46704710B518
:100610000446AFF300802046BDE81040FFF7D5BD8B
:10062000002801D0FFF7C0BF7047000010B50021BF
:1006300002A000F017F8012010BD00005349474107
:100640004252543A2041626E6F726D616C20746543
:10065000726D696E6174696F6E00000000487047CA
:10066000E403002070B505460C460A2000E06D1C2E
:10067000FFF792FF35B128780028F8D102E0641C1A
:10068000FFF78AFF14B120780028F8D1BDE8704048
:100690000A20FFF781BFFEE710B502F05DFFBDE85D
:1006A00010406FF0030103F05CB97047F0B5A5B0DE
:1006B0001F481E4F3946006802F0AEFF02F010FFDF
:1006C00004461C483946006802F0A6FF02F008FF05
:1006D000054619483946006802F09EFF02F000FF07
:1006E000064616483946006802F096FF02F0F8FE0A
:1006F000074600F0A5FA4FF47A71B0FBF1F3104809
:1007000010A280210088CDE90076CDE90254049042
:1007100005A8FFF795FD002805DD82B2322305A963
:10072000104801F077F825B0F0BD00000000C84285
:100730001C010020200100201801002014010020CD
:10074000E800002025752C202025642C202025641D
:100750002C202025642C202025642C202025750D9C
:100760000A000000F401002072B6FEE706490020EE
:10077000C8610648016941F004010161016941F065
:100780004001016170470000380200200020024053
:10079000064A0021D16106490A6942F002020A6153
:1007A0004861086940F04000086170473802002045
:1007B00000200240044B0022DA61044A136943F02E
:1007C00001031361018070473802002000200240BD
:1007D00000201449CA68D306134A04D5D06940F0F2
:1007E0000200D0611020CB685B0705D5D36943F0C8
:1007F0000103D36140F00400CB69DB0707D0D36964
:1008000043F00403D361CA6922F00102CA61A0F572
:100810008072013A01D0C8607047C86920F00100B9
:10082000C8617047002002403802002070B50446BD
:1008300000F006FA0546114E09E0601C07D024B10D
:1008400000F0FEF9401BA04201D9032070BDF06802
:10085000C007F2D1F068800601D52020F060F06872
:10086000C00605D4F069C00702D1F068400703D57F
:10087000FFF7AEFF012070BD002070BD00200240D8
:1008800008B50090000C08800098108008BD7047E3
:1008900070B5044600F0D4F90546601C02D0044847
:1008A0000078044400F0CCF9401BA042FAD370BD9C
:1008B000140000202DE9F04705460F464FF0010ACD
:1008C000DFF8908098F8180001280DD0012088F8F2
:1008D00018002868204E4CF25039022807D04846AC
:1008E000FFF7A4FF98B12FE00220BDE8F08748464B
:1008F000FFF79CFFF8B90120FFF738FF4846FFF7E4
:1009000095FF8246306920F0040030611CE04FF012
:10091000FF303860AC6811E02046FFF739FF4846E9
:10092000FFF784FF8246306920F0020030615FEA01
:100930000A0001D03C6007E004F58064D5E90201BB
:1009400000EB8120A042E7D8002088F8180050462C
:10095000CBE7000038020020002002400348016974
:1009600041F080010161002070470000002002403A
:100970002DE9F05F0746884615461E460024DFF83D
:10098000749099F81800012809D0012089F81800FE
:100990004CF2503B5846FFF749FF18B126E00220C1
:1009A000BDE8F09F012F05D0022F05D00427DFF806
:1009B00048A019E00127FAE70227F8E722012846B4
:1009C0003146FFF729FC81B208EB4400FFF7F2FE45
:1009D0005846FFF72BFFDAF8101021F00101CAF892
:1009E000101018B9641CE4B2BC42E7D3002189F8A6
:1009F0001810D5E7380200200020024000200649E8
:100A00000A69120607D5054A4A60054A4A6009691B
:100A1000090600D5012070470020024023016745E8
:100A2000AB89EFCD2DE9F84F00240023DFF8C49106
:100A30004FF00F0809F1040A0AF1040B0BF1040E40
:100A4000D1E00127A7403A40BA4275D1DFF8A8C1EA
:100A50004D68A5EB0C0665452BD00DDC032D34D07D
:100A600005DC35B3012D19D0022D2FD11BE0112D3E
:100A700016D0122D2AD119E0B6F5881F19D006DC40
:100A8000B6F5803F15D0B6F5801F1FD111E0B6F541
:100A9000001F0ED0B6F5041F18D10AE0CB6815E090
:100AA000CB681B1D12E0CB6808330FE0CB680C331A
:100AB0000CE08B6823B1012B04D00823476105E0CB
:100AC000042303E00823076100E00023FF2A01D884
:100AD000054601E000F1040502D84FEA840603E070
:100AE000A4F108064FEA86062F6808FA06FC27EAF2
:100AF0000C0703FA06F647EA06072F604D68ED007B
:100B000070D53E4DAE6946F00106AE61AD6905F0A7
:100B1000010500953A4D24F003067719BE68A50734
:100B20002D0F08FA05FC26EA0C06DFF8D8C0604550
:100B300003D14FF0000C17E054E0DFF8CCC0604563
:100B400002D14FF0010C0FE0DFF8C0C0604502D1C8
:100B50004FF0020C08E0DFF8B8C0604502D14FF05A
:100B6000030C01E04FF0040C0CFA05FC4CEA060CF7
:100B7000C7F808C04D68ED0305D5D9F800501543F6
:100B8000C9F8005004E0D9F800509543C9F8005066
:100B90004D68AD0305D5DAF800501543CAF800508A
:100BA00004E0DAF800509543CAF800504D68ED02B1
:100BB00005D5DBF800501543CBF8005004E0DBF816
:100BC00000509543CBF800504D68AD0205D5DEF8D6
:100BD00000501543CEF8005004E0DEF80050954375
:100BE000CEF80050641C0A6832FA04F57FF429AF8D
:100BF000BDE8F88F00040140000011100010024011
:100C00000000014000080140000C014000100140BC
:100C1000001401408068084201D001207047002084
:100C20007047C2680A4201D0416170470161704754
:100C3000002A01D00161704709040161704700007A
:100C40000148806870470000140000200248816855
:100C500002781144816070471400002010B50748E5
:100C6000016841F010010160032000F077F80F20C7
:100C700000F006F800F026F8002010BD0020024029
:100C800070B504460D4D4FF47A712878B1FBF0F041
:100C90000B490968B1FBF0F000F03EFB08B1012000
:100CA00070BD102C07D200222146501E00F036F8ED
:100CB0006C60002070BD012070BD00001400002099
:100CC0002000002008B50C48816941F001018161D4
:100CD000816901F001010091C16941F08051C16158
:100CE000C06900F0805000900449486820F0E0603E
:100CF00040F00070486008BD001002400000014054
:100D0000002809DB00F01F0201219140400980000A
:100D100000F1E020C0F8001170470000F0B40D466B
:100D20000D4B1B68C3F30223C3F10704042C00D945
:100D30000424191D072901D2002300E0DB1E01262F
:100D400006FA04F1491E294099409E40761E16403D
:100D50003143F0BC01F054BD0CED00E000F00701A0
:100D6000054A10684FF6FF03184040EA0120034986
:100D700008431060704700000CED00E00000FA0529
:100D80002DE9F04704460D46002C17D0DFF83081DE
:100D9000D8F8000000F00700A84211D2D8F80000EF
:100DA00020F007002843C8F80000D8F8000000F041
:100DB0000700A84204D00120BDE8F0870120FBE72E
:100DC0002068404E810712D5400703D5706840F473
:100DD000E06070602078000703D5706840F46050D0
:100DE00070607068A16820F0F0000843706020789F
:100DF000C0072CD06068012806D0022809D03168CD
:100E000089070BD40120D7E73168890306D4012074
:100E1000D2E73168890101D40120CDE7716821F062
:100E2000030101437160FFF70BFF074641F2883968
:100E300006E0FFF705FFC01B484501D90320BBE7CB
:100E40007068616800F00C00B0EB810FF1D1D8F848
:100E5000000000F00700A8420ED9D8F8000020F0EA
:100E600007002843C8F80000D8F8000000F0070089
:100E7000A84201D001209FE72078400705D570687F
:100E8000E16820F4E060084370602078000706D530
:100E90007068216920F4605040EAC100706000F081
:100EA0003FF87168084AC1F30311515CC840074913
:100EB000086007480068FFF7E3FE00207CE70000B9
:100EC0000020024000100240DE390008200000200F
:100ED0001800002001480068704700002000002032
:100EE00000B5FFF7F7FF04494968044AC1F302213E
:100EF000515CC84000BD000000100240EE390008FF
:100F000000B5FFF7E7FF04494968044AC1F3C2216D
:100F1000515CC84000BD000000100240EE390008DE
:100F200085B014A090E80E00C068CDE902230191BD
:100F3000049014A000680090134B5968134801F006
:100F40000C02042A10D0082A0ED101A8C1F3834252
:100F5000805CC9030AD55968C1F340411DF80110EE
:100F60000A4A5043B0FBF1F005B0704708494843C6
:100F7000FAE7000002030405060708090A0B0C0D36
:100F80000E0F1010010200000010024000127A0043
:100F900000093D002DE9F84F0446002C0ED02078C2
:100FA000D94DC0075ED06868C0F3810001280BD01E
:100FB0006868C0F38100022803D00CE00120BDE87E
:100FC000F88F6868C00306D5286880034AD5606832
:100FD000A8BB0120F3E76068B0F5803F11D0A8B14D
:100FE000B0F5A02F1BD0286820F480302860286836
:100FF00020F480202860606830B3FFF721FE0646A9
:101000001EE0286840F480302860F4E7286820F467
:1010100080302860286820F480202860EBE728686A
:1010200040F480202860286840F480302860E2E79F
:10103000FFF706FE801B642802D90320BFE711E0FA
:1010400028688003F4D50DE0FFF7FAFD064606E0B8
:10105000FFF7F6FD801B642801D90320AFE728685D
:101060008003F5D42078DFF8A48280074FF0010ACE
:101070004FF0000945D5686810F00C0F07D068687C
:10108000C0F38100022812D16868C0030FD4286819
:10109000800704D52069012801D001208FE7286846
:1010A000616920F0F80040EAC100286029E0206969
:1010B000B8B1C8F800A0FFF7C3FD064606E0FFF789
:1010C000BFFD801B022801D9032078E7286880072C
:1010D000F5D52868616920F0F80040EAC100286071
:1010E0000FE0C8F80090FFF7ABFD064606E0FFF7FB
:1010F000A7FD801B022801D9032060E7286880072C
:10110000F5D42078000726D58148A16999B1C0F8A7
:1011100000A0FFF795FD064606E0FFF791FD801B56
:10112000022801D903204AE7686A8007F5D5012023
:1011300001F008F90FE0C0F80090FFF781FD0646C6
:1011400006E0FFF77DFD801B022801D9032036E76A
:10115000686A8007F5D42078400773D50026E869CF
:10116000C00008D4E86940F08050E861E86900F008
:10117000805000900126DFF89CB1DBF80000C0052C
:1011800014D4DBF8000040F48070CBF80000FFF7C7
:1011900057FD074606E0FFF753FDC01B642801D941
:1011A00003200CE7DBF80000C005F4D5E068012857
:1011B00012D0B0B105281DD0286A20F001002862A5
:1011C000286A20F004002862E06841F2883B28B3D6
:1011D000FFF736FD07461DE0286A40F0010028624F
:1011E000F2E7286A20F001002862286A20F0040053
:1011F0002862E9E7286A40F004002862286A40F083
:1012000001002862E0E7FFF71BFDC01B584501D92C
:101210000320D4E6286A8007F5D50DE0FFF710FD1E
:10122000074606E0FFF70CFDC01B584501D9032017
:10123000C5E6286A8007F5D4012E03D1E86920F0BD
:101240008050E861E069A0B36968C1F381010229B7
:1012500046D0022805D0C8F86090FFF7F1FC04469C
:101260003AE0C8F86090FFF7EBFC064606E0FFF7AF
:10127000E7FC801B022801D90320A0E62868800132
:10128000F5D4206AB0F5803F05D16868A16820F4E4
:10129000003008436860D4E908010843696821F414
:1012A000741108436860C8F860A0FFF7C9FC0446E1
:1012B00007E026E0FFF7C4FC001B022801D9032049
:1012C0007DE628688001F5D51BE0FFF7B9FC001B1F
:1012D000022801D9032072E628688001F5D410E0C5
:1012E00001280CD06868226A00F48031914204D150
:1012F000616A00F47010884203D001205FE601208B
:101300005DE600205BE60000001002400000424263
:10131000800442420070004010B5401EB0F1807F52
:1013200001D3012010BD4FF0E02460610F21601750
:1013300001F066FA0020A06107202061002010BDA6
:1013400070B590F83C20012A19D0012600F83C6FB6
:101350000222427050F83C2C5468936824F07005C7
:101360000C682C4323F0800349681943546050F8FB
:101370003C2C9160467000210170002070BD02205D
:1013800070BD10B50446002C03D094F83D0010B198
:1013900007E0012010BD002084F83C00204600F04A
:1013A0000DF8022084F83D00211D206801F038F876
:1013B000012084F83D00002010BD000008B5006841
:1013C000B0F1804F12D10A48C16941F00101C161F9
:1013D000C06900F001000090002211461C20FFF7B8
:1013E0009DFCBDE808401C20FFF78ABC08BD00003A
:1013F000001002400168CA6842F00102CA60006839
:10140000816801F00701062903D0016841F001015C
:101410000160002070470168CA6822F00102CA60BA
:101420000068016A41F21112114207D1016A92105B
:10143000114203D1016821F00101016000207047D1
:1014400070B5044694F83C00012817D0012584F8B3
:101450003C50022084F83D002068826822F0770228
:1014600022F47F4282600868502831D00DDC2028A9
:101470004DD005DCB0B310284ED148E0022070BD3D
:10148000302844D0402847D137E060282BD070283E
:1014900006D0B0F5805F3FD0B0F5005F3CD10BE0E7
:1014A000CB68D1E90121206800F0FDFF2068816848
:1014B00041F0770181602FE0CB68D1E901212068FC
:1014C00000F0F1FF2068816841F48041816023E0F1
:1014D000CA684968206801F0AFF85021206800F020
:1014E000ECFF19E013E0CA684968206801F0B5F81C
:1014F0006021206800F0E1FF0EE0CA6849682068BA
:1015000001F09AF84021206800F0D7FF04E022683B
:101510000146104600F0D1FF3C3465700020207079
:1015200070BD000000B585B00021019102910391CA
:10153000049100680B49884211D10B48816941F040
:1015400008018161806900F008000090402001904E
:1015500002200290049001A90448FFF763FA05B045
:1015600000BD00000008004000100240000C0140D7
:1015700070B504460D4694F83C0001280DD00126B4
:1015800084F83C60022084F83D0042B1042A1AD05D
:10159000082A2DD00C2A53D13EE0022070BD2946E6
:1015A000206800F093FF2068816941F008018161A3
:1015B0002068816921F004018161206881692A69BC
:1015C000114381613CE02946206800F0AFFF2068AC
:1015D000816941F4006181612068816921F4806141
:1015E0008161206881692A6941EA0221816127E0DD
:1015F0002946206800F0CCFF2068C16941F008014D
:10160000C1612068C16921F00401C1612068C1691C
:101610002A691143C16113E02946206800F0E8FF00
:101620002068C16941F40061C1612068C16921F489
:101630008061C1612068C1692A6941EA0221C161F2
:101640003C3466700020207070BD10B50446002C3C
:1016500003D094F83D0010B107E0012010BD002038
:1016600084F83C00204600F00DF8022084F83D008C
:10167000211D206800F0D4FE012084F83D000020E8
:1016800010BD000008B500680649884208D1064828
:10169000C16941F00401C161C06900F0040000901B
:1016A00008BD0000000800400010024010B50446CC
:1016B0000122206800F0EAFE09492068884203D12F
:1016C000416C41F4004141642068816801F00701E8
:1016D000062903D0016841F001010160002010BD1E
:1016E000002C014070B50446002C04D094F8390059
:1016F000002510B106E0012070BD84F83850204666
:1017000000F022F8242084F839002068C16821F410
:101710000051C160204600F0B3FF2068016921F448
:10172000904101612068416921F02A0141612068EE
:10173000C16841F40051C160E563202084F839009C
:1017400084F83A00002070BD70B586B00024029481
:101750000394049405942B4E02682B490220032322
:101760002A4DB24229D18A6942F480428A618A694B
:1017700002F4804201928A6942F004028A61896916
:1017800001F004010191010202910390059302A965
:101790002846FFF747F9291502910394049402A9FA
:1017A0002846FFF73FF9002211462520FFF7B6FA39
:1017B0002520FFF7A5FA06B070BD154EB242FAD14A
:1017C000CA6942F40032CA61CA6902F40032019265
:1017D0008A6942F004028A61896901F00401019179
:1017E000042102910390059302A92846FFF71AF9F4
:1017F000082102910394049402A92846FFF712F9E4
:10180000D9E7000000380140001002400008014004
:10181000004400402DE9F84304460D4691461E461B
:1018200094F83900202802D00220BDE8F883B5B131
:10183000B9F1000F13D094F83800012811D001201D
:1018400084F838000027E763212084F83900FFF787
:10185000F7F98046A4F82490A4F826902DE0012002
:10186000E3E70220E1E7E08C401EE084A068B0F5E9
:10187000805F09D04346002280212046009600F078
:1018800089FFB0B10320D0E74346002280212046E3
:10189000009600F07FFF08B10320C6E72888216882
:1018A000C0F308004860206908B16D1C05E0AD1C5C
:1018B00003E0216815F8010B4860E08C0028D2D1C4
:1018C0004346002240212046009600F063FF08B105
:1018D0000320AAE720203834607027700020A4E796
:1018E000FEE700002DE9F041114F00213A4600F0DB
:1018F00013F905460F480668F46AB5F5000F01DADA
:10190000002011E0BD4201DB20460DE0601C01F02B
:101910003BFE294601F080FE394601F01FFD01F033
:10192000FBFDA04200D920467063BDE8F0810000B5
:101930000000C842740100202DE9F05F0024002659
:10194000A04600270025DFF88891DFF888A1B9F8C4
:101950000010BAF80000014300D101275E48DFF80B
:101960007CB1008850B3022803D0032805D029BBDE
:1019700011E05C46012501263DE059485A46002108
:10198000006800F0C9F80446B4F5000F01DB01253A
:1019900031E000252FE0534801685348006801F00A
:1019A00007FF28D9514801685148006801F032FF0B
:1019B000B0F17E5F03DB5C46012501261BE0B0F53C
:1019C000000F18DB4B4901F027FE4B4901F052FC98
:1019D0005A46002100F0A0F804464FF4000084426B
:1019E00001DB012500E00025844202DB4FF0010805
:1019F00001E04FF00008394A0021204600F08CF841
:101A00003E4983460860B0F5000F01DB012400E089
:101A100000243B4804803B49584601F0FDFD2F4916
:101A200001F09CFC384908603848002101803849A1
:101A30000A8801217AB1B9F8002002B10180BAF810
:101A4000001019B1018841F0020101801FB901881D
:101A500041F0400101802F48412101801E49098841
:101A6000012901D143220280032903D1018841F0D9
:101A7000040101801EB1018841F008010180B8F124
:101A8000000F03D0018841F0100101801CB10188D2
:101A900041F0200101801FB1018841F080010180E7
:101AA000B9F8001019B9018841F480710180BAF8C1
:101AB000001019B9018841F4007101801DB101883D
:101AC00041F4006101805846BDE8F05FFFF70ABFAE
:101AD000F8000020FA000020E80000200000C842C2
:101AE0000C01002004010020140100201801002036
:101AF000080100200000A04100002041200100203A
:101B0000F6000020000040411C010020F4000020ED
:101B1000EE000020F200002070B506460D46144687
:101B20002946304601F044FD01D2284670BD2146C9
:101B3000304601F03DFE01D2204670BD304670BDFA
:101B400070B50546002000238C240EE0EA5C50406E
:101B50000022C60702D084EA500000E04008521C70
:101B6000D2B2082AF5D35B1CDBB28B42EED370BD38
:101B700010B506494B68064A064C1268B2FBF4F2EF
:101B800042434868C01A9042FBD310BD001000E0E9
:101B90002000002040420F000648016841F080719B
:101BA0000160054800214160016841F001010160C8
:101BB00070470000FCED00E0001000E010B5FFF7FA
:101BC000EBFF044800F023F80248BDE8104008305D
:101BD00000F01DB8240100201FB50446002100912B
:101BE000019102910391A08800901120019003209F
:101BF000039069462068FEF715FFA188002220683F
:101C0000FFF716F81FBD81880068FFF703B81FB5FE
:101C10000021009101910291039181880091006857
:101C20006946FEF7FFFE1FBD10B501F095FC6FF091
:101C3000070101F096FEBDE81040014901F01ABB12
:101C40000000204210B504462046FFF7C5FF0220E1
:101C5000FFF78EFF2046FFF7DAFF0A20FFF788FF25
:101C60002046FFF7D0FF04463220FFF781FF2046D1
:101C700010BD2DE9F041064600250024012730461D
:101C8000FFF7E0FF18B107FA04F02843C5B2641C5F
:101C9000E4B2082CF3D32846BDE8F081FEB5074630
:101CA0000E46384600F042F850B3CC21384600F0DA
:101CB0007EF84421384600F07AF80C20FEF7E8FD63
:101CC000384600F033F8E8B1CC21384600F06FF820
:101CD000BE21384600F06BF800246D463846FFF709
:101CE000C8FF2855641CE4B2092CF7D308216846C4
:101CF000FFF726FF9DF80810884205D00020FEBDA2
:101D00000020FEBD0020FEBD9DF800009DF80110E2
:101D100040EA012000B2B97921B1FEF7BDFC306084
:101D20000120FEBDFFF780FF3060F9E770B5054682
:101D300000242846FFF750FF4FF4FA70FFF718FF12
:101D40002846FFF764FF4620FFF712FF2846FFF7FB
:101D50005AFF00B901244FF4D770FFF709FF20465E
:101D600070BD002901D000F012B8AFF3008010B5AB
:101D700004462046FFF730FF3C20FFF7F9FE2046DF
:101D8000FFF745FFBDE810400520FFF7F1BE10B595
:101D900004462046FFF720FF0520FFF7E9FE204616
:101DA000FFF735FFBDE810403C20FFF7E1BE70B5FE
:101DB00006460D46002405F001013046FFF7D1FF2D
:101DC0006D08641CE4B2082CF5D370BD2DE9F04316
:101DD00085B0002401940294039404941F488169FF
:101DE00041F020018161816901F020010091816948
:101DF00041F004018161816901F004010091816970
:101E000041F008018161806900F008000090DFF86E
:101E1000509041F20605002229464846FEF708FF89
:101E2000DFF840802F11002239464046FEF700FFC0
:101E300001950125029503940226049601A94846BE
:101E4000FEF7F0FD019702950394049601A9404620
:101E5000FEF7E8FD05B0BDE8F08300000010024089
:101E6000000C01400008014010B586B00024029427
:101E70000394049405940094019413484FF0804116
:101E800001604721416084604FF6FF71C1600461C9
:101E90008461FFF776FA08B1FEF766FC4FF48050D4
:101EA000029002A90848FFF7CBFA08B1FEF75CFCE4
:101EB0000094019469460448FFF742FA002801D0D3
:101EC000FEF752FC06B010BD3401002010B58AB0F8
:101ED0000024089409941C2101A8FEF79FFA1648D3
:101EE0001449016047214160846040F2CF71C160B4
:101EF00004618461FFF7A9FB08B1FEF735FC089483
:101F0000099408A90C48FFF71BFA08B1FEF72CFC4E
:101F100060200190029403940594002201A90648D0
:101F2000FFF726FB08B1FEF71FFC0348FFF7FAFA9C
:101F30000AB010BD000800407401002010B50C4824
:101F40000A4901604FF41651416000218160C1606F
:101F500001610C2242618161C161FFF7C3FB00286E
:101F600003D0BDE81040FEF7FFBB10BD00380140B4
:101F7000B401002010B50C480A4901604FF4E1316A
:101F8000416000218160C16001610C224261816178
:101F9000C161FFF7A7FB002803D0BDE81040FEF7A2
:101FA000E3BB10BD00440040F4010020FEE7000048
:101FB00010B5084C207800280AD0FEF741FEE16AEF
:101FC000401AB0F5967F03D300F06AF90020207024
:101FD00010BD0000E40000202DE9F0410446601827
:101FE000401E85B2264E012C04D81DB1707840F0F9
:101FF00001007070022C05D8022D03D3707840F0D8
:102000000200707070780027032802D1777000F00A
:10201000F1F8032C05D8032D03D3B07840F001006C
:10202000B070042C05D8042D03D3B07840F0020022
:10203000B070B078032802D1B77000F0DBF8052C3F
:1020400005D8052D03D3F07840F00100F070062C80
:1020500005D8062D03D3F07840F00200F070F07838
:10206000032802D1F77000F0C5F8072C05D8072D1A
:1020700003D3BDE8F04100F0BDB8BDE8F081000039
:10208000E400002006488189012908D1002101824D
:102090008182C18201834183818100F04DB8704704
:1020A000E4000020084807490162084941620849E4
:1020B0008162012181800C22C28000220281418143
:1020C0007047000000002041E40000200000A04113
:1020D0000000484210B58A210548FEF77DF9FFF758
:1020E000E1FF00F09FF8BDE8104000F025B80000C7
:1020F0005803002070B50E4CA188608800F034F9B8
:102100000C4D28622189E08800F02EF96862A189CF
:10211000608900F029F9A862E089A880208AA88156
:102120000C20E880002028810120688170BD00001B
:1021300058030020E400002070B52C4D2C4C2A1DC3
:10214000A91C206AFEF79CFB05F10802A91D606A24
:10215000FEF796FB05F10C02911EA06AFEF790FBBC
:10216000A088E881A08928820920002625F810602F
:10217000401C80B21728F9D91C4A206B3232911EBC
:10218000FEF77EFB194A606B3632911EFEF778FB34
:10219000164AA06B3A32911EFEF772FB134AE06BAF
:1021A0003E32911EFEF76CFBE08925F8400F208A35
:1021B0006880608AA880A08AE880E08A2881208BD5
:1021C0006881608BA881E088E881208928820120CD
:1021D0006882A08BA882E08BE882403D2C2025F805
:1021E0001060401C80B24428F9D970BD580300200B
:1021F000E400002010B5034C01202070FEF720FD04
:10220000E06210BDE4000020FEE7D0E9001251407A
:10221000D0E902235A405140026940695140484088
:102220007047000010B5174C17492068884201D04C
:10223000002010BD2046FFF7E8FFA169884201D0C9
:10224000002010BD2069032801D9002010BD60695D
:10225000012801D9002010BD606800F0D0FA0B49B8
:102260000860A06800F0CBFA09490860E06800F057
:10227000C6FA084908600849208A088007490120F1
:10228000088010BD00FC00084152415004010020AC
:10229000080100200C010020E8000020EE000020D2
:1022A00070B58CB0002507951F4800901F48006846
:1022B000FEF7EDFA01901E480068FEF7E8FA02907A
:1022C0001C480068FEF7E3FA03901B48008804905E
:1022D000012405946846FFF798FF0690FEF78EFBF1
:1022E0000895164D0A950B9407A908A8FEF7E2FA7F
:1022F00020B1FEF733FB00200CB070BD6E46002409
:10230000002356F8242029460220FEF731FB18B19D
:10231000FEF724FB0020EFE72D1D641C072CEFD3F4
:10232000FEF71CFB0120E7E7415241500401002069
:10233000080100200C010020E800002000FC00083B
:102340007047000008B507494FF4FA520968B1FB1D
:10235000F2F14143009100BF0098411E0091FAD272
:1023600008BD00002000002041EA0040704770478F
:10237000FEF76CBC30B58FB0282105A8FEF74EF8EB
:1023800014216846FEF74AF80121059108040690D9
:1023900000240794099102250C950D904FF4E0104C
:1023A0000E9005A8FEF7F6FD08B1FEF7DDF90F2047
:1023B0000090019502944FF48060039004940221F0
:1023C0006846FEF7DDFC002801D0FEF7CDF90FB01E
:1023D00030BD00000D48016841F001010160416815
:1023E0000B4A1140416001680A4A114001600168CE
:1023F00021F480210160416821F4FE0141604FF425
:102400001F0181600449C00308607047001002404A
:102410000000FFF8FFFFF6FE08ED00E000F0FEBD53
:10242000F0B50268164C174D174E4FF08047A0428A
:1024300005D0B84203D0A84201D0B04203D122F067
:1024400070034A681A43A04205D0B84203D0A8429C
:1024500001D0B04203D122F44073CA681A434B69D9
:1024600022F080021A4302608A68C2620A688262AD
:10247000A04201D10969016301214161F0BD000061
:10248000002C0140000400400008004010B501F09D
:102490001F0101238B40046A9C430462036A8A4043
:1024A0001343036210BD10B5846824F47F4442EAEC
:1024B00003220A432243826010BD826822F0700228
:1024C0000A4342F0070181607047000030B5026A9C
:1024D00022F001020262036A4268846924F07004F7
:1024E00024F003050C682C4323F002058B682B4372
:1024F0000D4DA84206D123F00805CB6843EA050339
:1025000023F0040309D122F4807222F400724D6991
:1025100045EA02058A6942EA050242608461496827
:102520004163036230BD0000002C014030B5026AF7
:1025300022F010020262036A4268846924F4E044D3
:1025400024F440740D6844EA052423F020038D68C8
:1025500043EA05130D4DA84206D123F08003CD6850
:1025600043EA051323F0400309D122F4806222F4E8
:1025700000624D6942EA85028D6942EA8502426045
:10258000846149688163036230BD0000002C014012
:1025900030B5026A22F480720262036A4268C4693A
:1025A00024F0700424F003050C682C4323F400731A
:1025B0008D6843EA05230D4DA84206D123F400633C
:1025C000CD6843EA052323F4806309D122F48052C5
:1025D00022F400524D6942EA05128D6942EA051261
:1025E0004260C4614968C163036230BD002C014090
:1025F00030B5026A22F480520262036A4268C469FA
:1026000024F4E04424F440740D6844EA052423F4DF
:1026100000538D6843EA0533064DA84204D122F4E5
:1026200080424D6942EA85124260C4614968016492
:10263000036230BD002C014010B5036A046A24F027
:1026400001040462846924F0F00444EA021423F0D3
:102650000A020A438461026210BD10B5036A23F0C6
:10266000100303628469036A24F4704444EA02326A
:1026700023F0A00343EA01118261016210BD000052
:102680002DE9F041044620680169E26821F44051D7
:1026900011430161A1682069014360690143206819
:1026A000C26841F20C639A430A43C26020684169E0
:1026B000A26921F4407111434161354920686425C4
:1026C0003226884232D1FEF71BFC00EBC00101EB41
:1026D000001061686FF018078900B0FBF1F2B2FBDF
:1026E000F5F2B0FBF1F37A4303EB8202B0FBF1F3B6
:1026F00006EB0212B2FBF5F2B3FBF5F302F0F002C7
:1027000002EB0312B0FBF1F3B0FBF1F0B0FBF5F01C
:10271000784303EB800006EB0010B0FBF5F0216876
:1027200000F00F0010448860BDE8F081FEF7D8FB90
:1027300000EBC00101EB001061686FF01807890021
:10274000B0FBF1F2B2FBF5F2B0FBF1F37A4303EB2D
:102750008202B0FBF1F306EB0212B2FBF5F2B3FB1F
:10276000F5F302F0F00202EB0312B0FBF1F3B0FB61
:10277000F1F0B0FBF5F0784303EB800006EB0010BE
:10278000B0FBF5F0216800F00F0010448860CBE743
:10279000003801402DE9F04104460E4617469846A0
:1027A000069D1DE0681C1BD02DB1FEF749FAA0EB79
:1027B0000800A84214D92068C16821F4D071C16012
:1027C0002068416921F001014161202084F839002D
:1027D00084F83A00002084F838000320BDE8F08136
:1027E0002068006836EA000004D00020B842D9D042
:1027F0000020F3E70120F9E700F0F4BBFEE77047A3
:102800000907090E002804DB00F1E02080F800141D
:10281000704700F00F0000F1E02080F8141D7047B1
:1028200070B50024054D2878012802D006242046E2
:1028300070BD2869804700202870F8E72400002038
:1028400070B50C4600262188052902D003263046A3
:1028500070BD41780A0281781143491C89B205791B
:102860006A1E7C2A1AD80022228003220270228843
:10287000521C22806A004270801C2288521C2280D6
:1028800000232A4600F09AF918B100F0B5FA06467E
:10289000DDE7208800EB45002080D8E70326D6E757
:1028A00010B500240988052902D00324204610BD54
:1028B00041780A0281781143491C89B201231A46E2
:1028C000C01C00F07BF90028F0D000F095FA044617
:1028D000ECE770B50D460024298806291FD34178FE
:1028E000090282780A43521C91B2C278130202791B
:1028F0001A434379561E772E0FD85606360E9E423F
:102900000BD10123801D00F059F918B100F074FAC1
:10291000044605E00520288002E0032400E00324AB
:10292000204670BD70B514461A46049B0646002921
:1029300001D0F72901D9022421E0134D084629715D
:1029400016B10224ACB11AE010492961104969613D
:102950001049E9601049A9610021E9610F49296224
:102960000F4969620F49A962214600F073F80446D5
:10297000E8E700F0FBFA20B16E71012028702046D4
:1029800070BD0324FBE70000240000208D2B00080D
:10299000A92B0008392B0008952A00088930000867
:1029A000CD3100084D310008F8B5294D28780028B0
:1029B00001D00620F8BD684600F0CAFA012844D1CB
:1029C0009DF80000E8B3012802D002283DD10FE0B5
:1029D0001F4AAB69921D911CC81F984788BB687835
:1029E0002979884200D060BB022000F0C7FA2CE0B1
:1029F000A8680478AC700126EE700021144B2C33CB
:102A000013F8312062B1A24207D103EBC1014A6839
:102A10000F49891D9047E87002E0491C1029EFDB3F
:102A2000687870B1E97849B1A878EE80AA6840F07A
:102A300080001070E888431CEB801154EA882879E4
:102A400000E002E0D5E9021398470020F8BD00003D
:102A50002400002070B508461546002408222946A7
:102A600000F09CFA012801D003240EE0B5F5964F42
:102A700001D9232003E006496800B1FBF0F080B2E1
:102A800000F0E4FA012800D00324204670BD0000C5
:102A9000A07F17002DE9F04180460E46174600241E
:102AA0000F4DA888FF280BD8A888042804D3A9882C
:102AB0000C4800F0C9F940B105242046BDE8F0817A
:102AC0009C2209A112A0FDF747FC0648007888F86F
:102AD0000000A888C01E38800248401C3060ECE727
:102AE000D0000020580200202E2E5C667265656DB5
:102AF0006F646275732D76312E365C6D6F6462750E
:102B0000735C7274755C6D627274752E6300000084
:102B10007573526376427566666572506F73203CBA
:102B2000204D425F5345525F5044555F53495A45CB
:102B30005F4D41580000000070B50346084600256F
:102B4000104C6678012E02D00525284670BD401E27
:102B5000A0600126668003706188114461806188ED
:102B600000F072F961884A1C6280074A5054030AD7
:102B70006088411C6180135426700121002000F000
:102B800079F9E2E7D00000205802002010B505498D
:102B9000002048700021012000F06CF9BDE81040D1
:102BA00000F0C0B9D000002010B50021084600F0A8
:102BB00061F9BDE8104000F0A7B900002DE9F0412F
:102BC000054688461646B8F1000F04D008EB06000B
:102BD000401E442802DD0120BDE8F08144461C4F20
:102BE00013B1012B13D031E0FFF7A6FA00200BE060
:102BF00037F81410090A297017F814106970AD1C01
:102C0000641CA4B2401C80B2B042F1D31EE080B27A
:102C1000B8F1170F01D8172801D90120DCE70020EF
:102C20000CE02978090227F814106A78AD1C0A43D1
:102C300027F81420641CA4B2401C80B2B042F0D328
:102C4000FFF758FA31464046FFF7C6F90020C3E7C0
:102C5000580300201CB5FEF701F8FFF78BFBFFF7C8
:102C6000B5F8FFF701F9FFF731F9FFF767F9FFF75B
:102C700081F96423062252A15348FEF7CBFD0021BF
:102C80005248FEF713FD0020FEF72CFEFFF722FA54
:102C9000FEF794FF00254FF416532A460C212846D0
:102CA0000095FFF73FFE08B9FFF7BAFDDFF820A156
:102CB000484FDFF824B14FF6FF764FF00108DFF8F8
:102CC0001C91474C6CE0FDF7BBFF2061A088401CC5
:102CD000A08001A94348FEF7E1FF30B90A20FDF7C3
:102CE000D7FD01A93F48FEF7D9FF40B1E088401C5D
:102CF000E0803D49019808603D80258110E0BAF8E8
:102D00000000B04202D2401CAAF800002089B04264
:102D100001D2401C20812089052801D3A7F800801A
:102D20001420FDF7B5FD2088401C208069462F48FF
:102D3000FEF7B4FF30B90A20FDF7AAFD69462B481B
:102D4000FEF7ACFF48B16088401C608028490098BD
:102D50000860A9F80050658110E0BBF80000B0429F
:102D600002D2401CABF800006089B04201D2401C86
:102D700060816089052801D3A9F80080FEF7DCFD99
:102D8000FDF794FCFDF75CFFE168401A642807D367
:102D9000FDF756FFE0604FF480511648FDF741FF04
:102DA00001950095FFF700FEFFF76CF9FFF700F9BA
:102DB000FDF746FF2169401AB0F57A7FE2D382E73A
:102DC000424F4F540D0A0000F4010020740100200E
:102DD000FC000020F8000020FE000020FA00002087
:102DE0000000002024010020140100202C010020FC
:102DF00018010020000C0140002805D0012805D052
:102E0000072805D004207047002070470220704733
:102E10000620704701480068004700004C00002071
:102E20000348006840680349487003480068004749
:102E3000B4010020DE0000204400002001480068AA
:102E4000004700004800002070B5FF23FF22084D16
:102E500005F5807605E010F8014B54402A5D5A4094
:102E6000335D491E89B2F6D242EA032070BD0000EC
:102E7000F6390008F8B506460025204B204F214CB6
:102E800000291BD001203870012202211846FDF7CD
:102E9000CFFE00954FF4FA6102E00098401C0090CC
:102EA00000988842F9DB2068C16821F02001C160E8
:102EB0002068C16841F08001C160F8BD2068C16828
:102EC00021F08001C160387828B121680A68D243B6
:102ED0005206FBD43D70002202211846FDF7A8FEE1
:102EE0002EB12068C16841F02001C160F8BD2068A2
:102EF000C16821F02001C160F8BD0000000C014054
:102F0000DE000020B401002010B50548FEF783FA6A
:102F100003480021026851620068891E016110BDEA
:102F200034010020084900200A68506207480A68F6
:102F30000088401ED062C86009686FF00100086117
:102F40000148FEF757BA000034010020E0000020DD
:102F50000246002004494B78002B04D008781070FA
:102F60000020487001207047DC000020024900204A
:102F70004870012070470000DC0000200249012257
:102F80004A70087001207047DC000020024949782F
:102F90000170012070470000DE00002010B5002203
:102FA00002210948FDF744FE08490020087008493D
:102FB0000868C26822F02002C2600868C16821F077
:102FC0008001C160012010BD000C0140DE00002026
:102FD000B4010020024909684860012070470000E0
:102FE000B401002010B50C4C20680168C943890663
:102FF00004D4C068800601D5FFF712FF206801687D
:10300000C943090606D4C068000603D5BDE81040D0
:10301000FFF714BF10BD0000B401002010B50A482E
:1030200000680169C943C9070CD1C168C943C90710
:1030300008D1891E01610448FEF7EDF9BDE8104092
:10304000FFF7E8BE10BD00003401002010B500EB12
:10305000C00101EB00100A4C4FF6FF7101EA40007D
:1030600020800848FEF7D7F9064900200A68506218
:1030700020880A68401ED062C860012010BD000090
:10308000E00000203401002038B500251C4C2078D9
:10309000002804D0E6221BA124A0FDF75DF96846B4
:1030A000FFF774FF617839B1274801290AD0022956
:1030B00015D0032921D102E0FFF734FF1DE0FFF70F
:1030C00031FF1AE00021A1809DF80030A1884A1C40
:1030D000A280435402206070FFF724FF0DE0A18816
:1030E000FF2906D89DF80030A1884A1CA2804354CD
:1030F00001E003206070FFF715FF284638BD00008F
:10310000D00000202E2E5C667265656D6F6462755E
:10311000732D76312E365C6D6F646275735C7274DC
:10312000755C6D627274752E6300000065536E6489
:103130005374617465203D3D2053544154455F54A0
:10314000585F49444C4500005802002070B50024E7
:10315000124D6878002811D0022814D0032816D008
:103160006878A0B16878022811D0687803280ED05A
:103170004FF4AD720AA11448FDF7EEF80020FFF7F6
:10318000FDFE044603E00120FFF7F8FE0446FFF7CA
:10319000BBFE01206870204670BD0000D0000020FA
:1031A0002E2E5C667265656D6F646275732D763167
:1031B0002E365C6D6F646275735C7274755C6D62E3
:1031C0007274752E63000000F83B000870B500258E
:1031D000164C6078012805D040F2211214A11EA0DF
:1031E000FDF7BAF8207810B101281CD104E00021C5
:1031F0000120FFF73FFE16E0608850B1A06800781C
:10320000FFF7E8FEA068401CA0606088401E608058
:1032100009E00320FFF7B2FE054600210120FFF779
:1032200029FE00202070284670BD0000D00000203C
:103230002E2E5C667265656D6F646275732D7631D6
:103240002E365C6D6F646275735C7274755C6D6252
:103250007274752E63000000655263765374617456
:1032600065203D3D2053544154455F52585F4944C9
:103270004C45000090EA010F48BF81F0004100F189
:10328000D082421A3CBF801A89184FEAD0524FF0C0
:103290007F4C1CEA410FA2EBD15318BF9CEA026F8E
:1032A00000F03B804FF0004C4CEA00204CEA01213A
:1032B00021FA03FC10EB0C0C1ED202F1FF325FEA84
:1032C0001C2040EBC25038BF70471CF07F0F4FEA04
:1032D000400C18BFBCF17F4F38BF7047C3F12003CB
:1032E000994008BF20F00100BCF17F4F38BF704704
:1032F000A0F1C04000F057BA4FEA3C00000A40EB92
:10330000C25028BF1CF0FF0F4FEA400CE6D018BF98
:10331000BCF17F4F38BF7047EAE79CEA026F05D0E7
:1033200010EA5C0F08BF00F00040704710B500F0D5
:10333000F4F900BF64FBBE3E014800F0E0BA00BFF4
:103340000000C07F401058BFC0F14040491058BF36
:10335000C1F140418142EFF3008070474FF47F0C90
:103360001CEAD0121EBF1CEAD11392EA0C0F93EA9A
:103370000C0F00F0858090EA010F48BF42F4807284
:1033800040F4000C41F400002CF07F4120F07F401D
:1033900000B58142A2EB03020FF2081CACEB504EC9
:1033A000C0F100009EF800E04FEA4E0E00FB0EFC5C
:1033B00038BF49004FEA2C1C02F5FA020CFB0EF351
:1033C0004FEACE1E4FEA112C4FEAC1210EEB635E8D
:1033D00042EB22420EFB0CFC4FEA1C5300FB031194
:1033E0004FEA112C4FEA01310EFB0CFC4FEADC4C8A
:1033F00000FB0C11C14228BF09184CEB03335DF8E8
:1034000004EB10EB410143EBC250B2F57C0F38BF27
:10341000704729D512F0F00F1CBF00F1C04000F03A
:1034200000407047008182838485868788898B8CE1
:103430008D8E8F919293959697999A9C9D9FA0A21D
:10344000A3A5A7A8AAACAEB0B2B3B5B7B9BCBEC06D
:10345000C2C5C7C9CCCED1D4D7D9DCDFE2E6E9EC0E
:10346000F0F3F7FAFE0000004FEA400C0CF1807C0C
:10347000BCF17E4F28BF7047B0F1C04000F093B957
:1034800090EA010F0CEAD11348BF42F48072624502
:1034900038BF634507D213F47F0F16D080EA0100CE
:1034A00000F00040704710B500F037F9097EFC3E8F
:1034B00000F005B880EA010000F00040704780EAA3
:1034C000010000F0004000F06EB912F47F0F04BF5D
:1034D0000248704780EA010000F065B90000C07F33
:1034E00041000B0ED3F19E0208D950F400034FEABD
:1034F000032323FA02F048BF4042704710B500F0A2
:103500000CF900BF49922480002070476FF0004200
:1035100082EA200070470000C10DD1F19E0206DB57
:103520004FEA002343F0004323FA02F070470042C1
:1035300007D54FEA4001B1F1FE4F02D24FF0000033
:10354000704710B500F0E9F84992248000207047D8
:103550006FEA20007047000010F0004148BF404271
:10356000B0FA80F310FA03F2C3F19D030BD051EAD5
:10357000C35101EB1220530638BF704700F1010020
:1035800008BF20F001007047B0FA80F310FA03F290
:10359000C3F19D030AD0D90501EB1220530638BFB1
:1035A000704700F1010008BF20F0010070470000E3
:1035B00050EA010C00F113801CF5000F58BFBCF558
:1035C000000F01D48842704707D710F5000F58BF8D
:1035D00011F5000F15D488427047894270471CF5D9
:1035E000000F04D5BCF5000FF7D5814270474FF0AE
:1035F000807C1CEB400F38BF1CEB410F01D2814295
:10360000704710B500F089F8922449004FF000503F
:103610004FF08051FFF796BE4FF47F0C1CEAD0129A
:103620001EBF1CEAD11392EA0C0F93EA0C0F00F0B4
:10363000478090EA010F48BF42F480724FF0004C7F
:103640004CEA00204CEA012102EB0302A0FB01132B
:10365000A2F50002002918BF43F001035B0028BF58
:103660004FEA330342EB22425FEA132C4CEBC25089
:103670002EBFBCEB436FB2F57C0F70474FEA036C73
:10368000BCF1004F08BF20F00100B2F57C0F38BF3D
:1036900070470BD582F0FF0212F5803FC8BF70471C
:1036A00000F1C040D8BF00F00040704700F5000CAA
:1036B0005FEA4C0C48BF7047B0F1C04000F073B8EF
:1036C00090EA010F0CEAD11348BF42F480726245C0
:1036D00038BF634504D280EA010000F00040704723
:1036E00010B500F01AF800BF8900013E00F007B8DD
:1036F00000F009B85FEA410C5FEA1C6C08D080EA70
:10370000010000F050B85FEA400C5FEA1C6CF6D193
:103710004FF00040A0F5800070470EF1020E2EF031
:10372000030E5EF8044B244204D44FEA4102B2F186
:103730007F4F11D84FEA4003B3F17F4F0CD80ED121
:103740004FEAD07CB2F17F4F0CEB4C0C0CF1020C29
:1037500008BF4CEBD17C04E04FF0080C01E04FEACD
:10376000D17C0CEB4C0324FA03F404F00704B4F10D
:10377000040C06D20EEB840CBDE810404CF0010C9A
:103780006047DFE80CF0070802024FF00040A0F5A8
:10379000800010BD0846420018BFD2F1807288BF79
:1037A00000F0004010BDFF2141EAD050C005704735
:1037B00051EA000C00F113801CF5000F58BFBCF556
:1037C000000F01D48142704707D711F5000F58BF91
:1037D00010F5000F15D481427047894270471CF5DF
:1037E000000F04D5BCF5000FF7D5884270474FF0A5
:1037F000807C1CEB410F38BF1CEB400F01D288428C
:10380000704780EA010081EA000180EA0100FFF7C9
:10381000F8BE000090EA010F48BF81F000413FF57B
:1038200030AD421A04D882F00042A0EB02001144ED
:103830004FEAD0524FF07F4C1CEA410FA2EBD1531C
:1038400018BF9CEA026F4AD04FF0004C4CEA0020AF
:103850004CEA012121FA03FCB0EB0C0C0FD412F05E
:10386000FE0F36D05FEA4C001DD5001240EBC2506F
:1038700038BF70471CF03F0F18BF70470BE0A2F134
:1038800001025FEA1C2040EBC25038BF70471CF0B9
:103890007F0F18BF7047C3F12003994014BF401E2B
:1038A00020F00100704780084FEA122308BF7047DC
:1038B000B0FA80FCA2EB0C02CCF1280C60FA0CF000
:1038C00093EA122F04BF00EBC25070474FEAC37057
:1038D0007047130A5FEADC1008BF7047F6E79CEAFE
:1038E000026F04D010EA5C0F08BF0020704710B5CB
:1038F000FFF713FF40DFF63E81F0004070470CF009
:103900000F03092B08BF082000F051800A2B0BD0B1
:10391000082B18BF704708BF1CF0400F0AD04FF0AB
:1039200000004FF0000170471CF0400F18BF4FF02F
:10393000004070471CF0100F08D020F0704300F0DA
:103940007F4242EAD3014FEA4370704700F0604083
:1039500021F07F4242EA000201F07F4040EA7270AB
:1039600070474FF0FF0212EAD0521CBF92F0FF03E3
:103970008B42C2BFD14200EBC1507047002A0AD02F
:10398000002B0BD0002900F00040A4BF40F0FE4007
:1039900040F40000704700F00040704743024FF0D1
:1039A0000B0C18BF4CF0806C7FF4C6AC70471CF455
:1039B000801F11D01CF4E02F03D06FEACC314900F6
:1039C00070474FF04050EFF3008222F0704242EA1D
:1039D000000282F3008870474FF00000704700003B
:1039E00000000000000001020304060708090000AF
:1039F00000000102030400C1814001C0804101C0F8
:103A0000804100C1814001C0804100C1814000C1AE
:103A1000814001C0804101C0804100C1814000C19E
:103A2000814001C0804100C1814001C0804101C08E
:103A3000804100C1814001C0804100C1814000C17E
:103A4000814001C0804100C1814001C0804101C06E
:103A5000804100C1814000C1814001C0804101C05E
:103A6000804100C1814001C0804100C1814000C14E
:103A7000814001C0804101C0804100C1814000C13E
:103A8000814001C0804100C1814001C0804101C02E
:103A9000804100C1814000C1814001C0804101C01E
:103AA000804100C1814001C0804100C1814000C10E
:103AB000814001C0804100C1814001C0804101C0FE
:103AC000804100C1814001C0804100C1814000C1EE
:103AD000814001C0804101C0804100C1814000C1DE
:103AE000814001C0804100C1814001C0804101C0CE
:103AF000804100C1814000C0C101C30302C2C606AB
:103B000007C705C5C404CC0C0DCD0FCFCE0E0ACA15
:103B1000CB0BC90908C8D81819D91BDBDA1A1EDE65
:103B2000DF1FDD1D1CDC14D4D515D71716D6D21215
:103B300013D311D1D010F03031F133F3F23236F625
:103B4000F737F53534F43CFCFD3DFF3F3EFEFA3AD5
:103B50003BFB39F9F83828E8E929EB2B2AEAEE2E65
:103B60002FEF2DEDEC2CE42425E527E7E62622E2D5
:103B7000E323E12120E0A06061A163A3A26266A625
:103B8000A767A56564A46CACAD6DAF6F6EAEAA6A95
:103B90006BAB69A9A86878B8B979BB7B7ABABE7EE5
:103BA0007FBF7DBDBC7CB47475B577B7B67672B295
:103BB000B373B17170B05090915193535292965625
:103BC0005797559594549C5C5D9D5F9F9E5E5A9A55
:103BD0009B5B99595898884849894B8B8A4A4E8EE5
:103BE0008F4F8D4D4C8C4484854587474686824255
:103BF00043834181804000002820655263765374DE
:103C0000617465203D3D2053544154455F52585FD7
:103C1000494E49542029207C7C2028206552637617
:103C20005374617465203D3D2053544154455F52A7
:103C3000585F5243562029207C7C202820655263FF
:103C4000765374617465203D3D2053544154455F63
:103C500052585F4552524F52202900007C3C0008C8
:103C6000000000203401000028010008C43C0008C6
:103C700034010020140900008401000801143201FD
:103C800082101324F4022B0232031341282A084025
:103C90001AD30832061AA108018012015A0CDA0957
:103CA00010EC212320411AA0046348421ECC419A03
:103CB00099F9101A4004313C080140291D0C0140BB
:043CC00004090000F3
:04000005080000ED02
:00000001FF
