:020000040800F2
:10000000480A0020C9010008C91B00089D13000808
:10001000051A0008D9030008892000080000000024
:10002000000000000000000000000000E31C0008C9
:10003000DB03000800000000E11C0008E51C0008CC
:10004000E3010008E3010008E3010008E301000800
:10005000E3010008E3010008E3010008E3010008F0
:10006000E3010008E3010008E3010008E3010008E0
:10007000E3010008E3010008E3010008E3010008D0
:10008000E3010008E3010008E3010008E3010008C0
:10009000E3010008E3010008E3010008E3010008B0
:1000A000E3010008E3010008E3010008E3010008A0
:1000B000911D0008E3010008E3010008E3010008C6
:1000C000E3010008E3010008E3010008E301000880
:1000D000E301000885200008E3010008E3010008AF
:1000E000E3010008E3010008E301000800F002F862
:1000F00000F05AF80AA090E8000C82448344AAF168
:100100000107DA4501D100F04FF8AFF2090EBAE865
:100110000F0013F0010F18BFFB1A43F0010318473B
:1001200080310000A03100000A444FF0000C10F8AC
:10013000013B13F0070408BF10F8014B1D1108BF65
:1001400010F8015B641E05D010F8016B641E01F805
:10015000016BF9D113F0080F1EBF10F8014BAD1C55
:100160000C1B09D16D1E58BF01F801CBFAD505E073
:1001700014F8016B01F8016B6D1EF9D59142D6D3CD
:10018000704700000023002400250026103A28BFF5
:1001900078C1FBD8520728BF30C148BF0B607047F9
:1001A0001FB51FBD10B510BD00F0C4F81146FFF714
:1001B000F7FF02F05DF900F0E2F803B4FFF7F2FF99
:1001C00003BC00F08BF8000009488047094800474D
:1001D000FEE7FEE7FEE7FEE7FEE7FEE7FEE7FEE7F7
:1001E000FEE7FEE704480549054A064B7047000054
:1001F000491D0008ED00000848040020480A0020BE
:100200004806002048060020B2F120030AD5C2F1BA
:10021000200320FA02F001FA03F321FA02F140EA86
:100220000300704721FA03F04FF00001704710B54A
:10023000002000F059F8FFF7B5FFBDE8104001209D
:1002400000F04CB84FF000020429C0F0128010F00A
:10025000030C00F01B80CCF1040CBCF1020F18BFA2
:1002600000F8012BA8BF20F8022BA1EB0C0100F035
:100270000DB85FEAC17C24BF00F8012B00F8012B08
:1002800048BF00F8012B70474FF0000200B513463D
:1002900094469646203922BFA0E80C50A0E80C50A6
:1002A000B1F12001BFF4F7AF090728BFA0E80C5057
:1002B00048BF0CC05DF804EB890028BF40F8042B50
:1002C00008BF704748BF20F8022B11F0804F18BFBD
:1002D00000F8012B7047704770477047014918209C
:1002E000ABBEFEE72600020010B500F00BF8BDE83B
:1002F000104000F001B87047002801D0FFF7EEBFB2
:100300007047000010B5002102A000F041F8012064
:1003100010BD0000534947414252543A2041626E99
:100320006F726D616C207465726D696E6174696F56
:100330006E000000754600F04BF8AE4605006946B9
:10034000534620F00700854618B020B5FFF74AFF56
:10035000BDE820404FF000064FF000074FF00008C6
:100360004FF0000B21F00701AC46ACE8C009ACE847
:10037000C009ACE8C009ACE8C0098D46704710B5AB
:100380000446AFF300802046BDE81040FFF715BFDC
:1003900070B505460C460A2000E06D1C00F011F80F
:1003A00035B128780028F8D102E0641C00F009F883
:1003B00014B120780028F8D1BDE870400A20AFF3CE
:1003C000008008B569468DF800000320ABBE08BD6B
:1003D00000487047E4030020FEE7704772B6FEE76E
:1003E00006490020C8610648016941F00401016125
:1003F000016941F0400101617047000038020020AE
:1004000000200240064A0021D16106490A6942F0F3
:1004100002020A614861086940F0400008617047C3
:100420003802002000200240044B0022DA61044A16
:10043000136943F001031361018070473802002003
:100440000020024014480022C168CB06134904D59D
:10045000CA6942F00202CA611022C3685B0705D56F
:10046000CB6943F00103CB6142F00402C369DB07AF
:1004700007D0CB6943F00403CB61C16921F00101CE
:10048000C161A2F58071013901D0C2607047C169B4
:1004900021F00101C16170470020024038020020B4
:1004A00070B5054600F0F0F90646114C09E0681CED
:1004B00007D025B100F0E8F9801BA84201D903203C
:1004C00070BDE068C007F2D1E068800601D5202049
:1004D000E060E068C00605D4E069C00702D1E068CA
:1004E000400703D5FFF7AEFF012070BD002070BDAF
:1004F00000200240030C0B801080704770B504464A
:1005000000F0C2F90546601C02D00448007804449B
:1005100000F0BAF9401BA042FAD370BD14000020CD
:100520002DE9F047054626480F460126017E0129A0
:100530000FD00121814601762868DFF888804CF2CF
:100540005034022808D0A2462046FFF7A9FFA8B1E0
:1005500031E00220BDE8F0872046FFF7A1FF08BB8D
:100560000120FFF73DFF2046FFF79AFFD8F8101053
:10057000064621F00401C8F810101CE04FF0FF30CF
:100580003860AC6811E02046FFF73CFF5046FFF7AB
:1005900087FFD8F81010060021F00201C8F81010EB
:1005A00001D03C6007E004F58064D5E9020100EB6E
:1005B0008120A042E7D8002189F818103046C9E709
:1005C00038020020002002400348016941F0800108
:1005D0000161002070470000002002402DE9F05F1B
:1005E00007461C4888460024017E15461E46012900
:1005F00009D00121814601764CF2503A5046FFF76E
:100600004FFF18B122E00220BDE8F09F012F02D079
:10061000022F00D00427D346DFF83CA02201284651
:100620003146FFF7F1FD81B208EB4400FFF7FCFE15
:100630005846FFF735FFDAF8102022F00102CAF819
:10064000102018B9641CE4B2BC42E7D3002289F838
:100650001820D9E738020020002002400649002077
:100660000A69120607D5054A4A60054A4A600969BF
:10067000090600D50120704700200240230167458C
:10068000AB89EFCD2DE9F84FDFF8B891002409F1DF
:10069000040A0AF1040B23460F270BF1040EC9E0EC
:1006A0000125A5402A40AA427DD1674ED1F804C059
:1006B000ACEB0608B44532D014DCBCF1030F3AD0E1
:1006C00009DCBCF1000F2AD0BCF1010F1CD0BCF139
:1006D000020F31D11DE0BCF1110F17D0BCF1120F88
:1006E0002AD119E0B8F5881F19D006DCB8F5803F8B
:1006F00015D0B8F5801F1FD111E0B8F5001F0ED03E
:10070000B8F5041F18D10AE0CB6815E0CB681B1DB3
:1007100012E0CB6808330FE0CB680C330CE08B6839
:100720002BB1012B4FF0080303D0456104E00423F3
:1007300002E0056100E00023FF2A01D8064601E03F
:1007400000F104064FEA840501D9A5F12005D6F889
:10075000008007FA05FC28EA0C0803FA05F548EAC8
:100760000508C6F800804D68ED0062D5374DAE69CA
:1007700046F00106AE61AD6924F0030605F00105FF
:100780000095334D06EB050CDCF80850A607360F34
:1007900007FA06F825EA0805DFF8B880404503D1D6
:1007A0004FF0000817E044E0DFF8AC80404502D18C
:1007B0004FF001080FE0DFF8A480404502D14FF070
:1007C000020808E0DFF89880404502D14FF00308A6
:1007D00001E04FF0040808FA06F848EA0508CCF8EA
:1007E00008804D68D9F80060ED034D4601D51643E9
:1007F00000E096432E604D68DAF80060AD03554680
:1008000001D5164300E096432E604D68DBF800608A
:10081000ED025D4601D5164300E096432E604D681B
:10082000DEF80060AD02754601D5164300E0964340
:100830002E60641C0D682A46E5407FF431AFBDE8A8
:10084000F88F000000040140000011100010024069
:100850000000014000080140000C01400010014070
:10086000001401408068084000D001207047C26831
:100870000A4201D041617047016170470AB10161CC
:1008800070470904FBE700000148806870470000DA
:10089000140000200248816802781144816070478A
:1008A00014000020074810B5016841F010010160F4
:1008B000032000F075F80F2000F006F800F024F88F
:1008C000002010BD0020024070B50D4D04464FF4CD
:1008D0007A712878B1FBF0F00A490968B1FBF0F0B1
:1008E00000F0ECFA48B9102C07D200222146501E25
:1008F00000F036F800206C6070BD012070BD000073
:1009000014000020200000200C4808B5816941F047
:1009100001018161816901F001010091C16941F02A
:100920008051C161C06900F0805000900448416866
:1009300021F0E06141F00071416008BD001002400B
:1009400000000140002809DB00F01F020121914056
:100950004009800000F1E020C0F80011704700005D
:10096000F0B40E4B1B680C46C3F30223C3F107051A
:10097000042D00D90425191D072901D2002300E008
:10098000DB1E012606FA05F1491E214099409E40D2
:10099000761E16403143F0BC01F077BB0CED00E051
:1009A000064900F0070208684FF6FF03184040EAC6
:1009B0000220034A10430860704700000CED00E07D
:1009C0000000FA052DE9F0470F46050061D0434EBF
:1009D000306800F00700B84209D2306820F0070004
:1009E00038433060306800F00700B84251D12868C1
:1009F0003B4C810712D5400703D5606840F4E060A6
:100A000060602878000703D5606840F4605060603B
:100A10006068A96820F0F000084360602878C0078B
:100A200028D06868012810D02168022810D08907D2
:100A300000292EDA616821F0030101436160FFF7AC
:100A400023FF804641F288390DE021688903EFE7F2
:100A50008901EDE7FFF718FFA0EB0801494502D92E
:100A60000320BDE8F0876068696800F00C00B0EB17
:100A7000810FEFD1306800F00700B8420BD9306821
:100A800020F0070038433060306800F00700B842BB
:100A900001D00120E5E72878400705D56068E968BE
:100AA00020F4E060084360602878000706D560689D
:100AB000296920F4605040EAC100606000F038F815
:100AC0006168084AC1F30311515CC84006490860D7
:100AD00006480068FFF7F8FE0020C2E70020024049
:100AE000001002408630000820000020180000207E
:100AF0000448054900684968044AC1F30221515C71
:100B0000C8407047200000200010024096300008C6
:100B10000448054900684968044AC1F3C221515C90
:100B2000C8407047200000200010024096300008A6
:100B300012A185B00FC98DE80F0014A0144A0068F7
:100B400004905168134801F00C03042B10D0082BBB
:100B50000ED1C1F38343C9031DF803000AD55168C0
:100B600004AAC1F34041515C0A4A5043B0FBF1F082
:100B700005B0704708494843FAE70000020304053E
:100B8000060708090A0B0C0D0E0F101001020000D9
:100B90000010024000127A0000093D002DE9F84FD4
:100BA000040070D02078C04DC00749D06868C0F3F9
:100BB0008100012807D06868C0F38100022809D1AC
:100BC0006868C00306D52868800339D560680028A6
:100BD000E7D035E06068B0F5803F0BD010B1B0F5DC
:100BE000A02F11D0286820F480302860286820F4D5
:100BF000802002E0286840F480302860606890B16E
:100C0000FFF742FE06460AE0286840F4802028608C
:100C1000F0E700BFFFF738FE801B642873D8286810
:100C20008003F7D50CE0FFF72FFE064605E000BF76
:100C3000FFF72AFE801B6428F0D828688003F7D4C9
:100C400020789A4E80074FF001094FF0000839D5FF
:100C5000686810F00C0F07D06868C0F381000228A4
:100C600009D16868C00306D42868800714D52069B4
:100C7000012808D110E02069B0B1C6F80090FFF754
:100C800003FE074605E00AE1FFF7FEFDC01B022850
:100C9000C4D828688007F7D52868616920F0F80073
:100CA00040EAC10028600DE0C6F80080FFF7ECFDC7
:100CB000074604E0FFF7E8FDC01B022823D8286898
:100CC0008007F7D4207800072CD57948A169D9B1DD
:100CD000C0F80090FFF7D8FD074604E0FFF7D4FD09
:100CE000C01B02280FD8686A8007F7D571484FF4F7
:100CF000FA510068B0FBF1F0009000BF0098411E6F
:100D00000091FAD20EE080E0C0F80080FFF7BCFD51
:100D1000074604E0FFF7B8FDC01B022875D8686AD3
:100D20008007F7D42078400760D5E8690027C00025
:100D300008D4E86940F08050E861E869012700F0D4
:100D4000805000905C480168C90513D4016883464F
:100D500041F480710160FFF797FD824606E000BF15
:100D6000FFF792FDA0EB0A0064284ED8DBF80000E4
:100D7000C005F5D5E06801280AD008B1052813D0D0
:100D8000286A20F001002862286A20F0040002E0AE
:100D9000286A40F001002862E06841F2883B98B17F
:100DA000FFF772FD82460BE0286A40F004002862DB
:100DB000EEE700BFFFF768FDA0EB0A0159455AD8DE
:100DC000286A8007F6D50CE0FFF75EFD824605E055
:100DD000FFF75AFDA0EB0A0159454CD8286A800755
:100DE000F6D41FB1E86920F08050E861E06988B36B
:100DF0006968C1F38101022944D00228C6F86080E5
:100E000004D0FFF741FD044638E034E0FFF73CFD35
:100E1000074604E0FFF738FDC01B02282BD82868DE
:100E20008001F7D4206AB0F5803F05D16868A168D9
:100E300020F4003008436860D4E908010843696879
:100E400021F4741108436860C6F86090FFF71CFD38
:100E5000044606E025E000BFFFF716FD001B022850
:100E600009D828688001F7D51BE000BFFFF70CFD0B
:100E7000001B022802D90320BDE8F88F28688001F2
:100E8000F4D40EE00128F7D06868226A00F48031BB
:100E9000914204D1616A00F47010884201D00120AF
:100EA000EAE70020E8E700000010024000004242AC
:100EB00080044242200000200070004010B5401E17
:100EC000B0F1807F01D3012010BD4FF0E0246061BC
:100ED0000F21601701F0D9F80020A06107202061E0
:100EE000002010BD70B590F83C20012A19D00124D3
:100EF00000F83C4F0222427050F83C3C5A689D6812
:100F000022F070060A684968324325F080052943BB
:100F10005A6050F83C2C91604470002101700846E2
:100F200070BD022070BD10B5040003D094F83D00E0
:100F300010B107E0012010BD002084F83C002046DD
:100F400000F00CF8022084F83D00211D206800F01C
:100F500021FF012084F83D00002010BD08B5006885
:100F6000B0F1804F12D10A48C16941F00101C1615D
:100F7000C069002200F00100009011461C20FFF71C
:100F8000EFFCBDE808401C20FFF7DCBC08BD0000FA
:100F9000001002400168CA6842F00102CA6000689D
:100FA000816801F00701062903D0016841F00101C1
:100FB0000160002070470168CA6822F00102CA601F
:100FC0000068016A41F21112114207D1016A9210C0
:100FD000114203D1016821F0010101600020704736
:100FE00070B5044690F83C00012817D0012584F81C
:100FF0003C50022084F83D002068826822F077028D
:1010000022F47F4282600868502830D00DDC20280E
:101010004DD005DC98B310283BD148E0022070BDCC
:10102000302844D0402834D139E0602828D07028B6
:1010300006D0B0F5805F2CD0B0F5005F29D10AE072
:10104000CB68D1E90121206800F0E7FE20688168C3
:1010500041F0770109E0CB68D1E90121206800F077
:10106000DCFE2068816841F48041816011E0CA683B
:101070004968206800F086FF5021206807E016E0EC
:10108000CA684968206800F08EFF6021206800F07F
:10109000CEFE84F83D50002084F83C0070BDCA6844
:1010A0004968206800F06EFF40212068EFE7226861
:1010B00001461046EBE7000000B585B00021009125
:1010C00001910291039100680B49884211D10B48AC
:1010D000816941F0080181618069694600F008007A
:1010E0000490402000900220019003900448FFF7F4
:1010F000C9FA05B000BD0000000800400010024021
:10110000000C014070B5044690F83C000D460128E3
:101110000DD0012684F83C60022084F83D0042B1E5
:10112000042A18D0082A2AD00C2A4DD139E00220EE
:1011300070BD206800F084FE2068816941F00801DC
:1011400081612068816921F00401816120688169E1
:101150002A69114311E0206800F09AFE2068816935
:1011600041F4006181612068816921F480618161BD
:10117000206881692A6941EA0221816124E02068AE
:1011800000F0B2FE2068C16941F00801C161206829
:10119000C16921F00401C1612068C1692A69114354
:1011A00011E0206800F0CCFE2068C16941F40061C4
:1011B000C1612068C16921F48061C1612068C16991
:1011C0002A6941EA0221C16184F83D60002084F867
:1011D0003C0070BD10B5040003D094F83D0010B180
:1011E00007E0012010BD002084F83C00204600F0FC
:1011F0000DF8022084F83D00211D206800F0CAFD92
:10120000012084F83D00002010BD000008B50068F2
:101210000649884208D10648C16941F00401C1610C
:10122000C06900F00400009008BD00000008004004
:101230000010024010B504460068012200F0E0FDF5
:1012400009492068884203D1416C41F4004141645E
:101250002068816801F00701062903D0016841F088
:1012600001010160002010BD002C014070B5040098
:1012700004D094F83900002510B106E0012070BDBB
:1012800084F83850204600F023F8242084F83900F0
:101290002068C16821F40051C160204600F096FE2C
:1012A0002068016921F4904101612068416921F0C1
:1012B0002A0141612068C16841F40051C160E563C1
:1012C000202084F8390084F83A00002070BD000026
:1012D00070B586B0002400940194029403942B4EC0
:1012E00003682B49022003222A4DB34229D18B697E
:1012F00043F480438B618B6903F4804304938B69CF
:1013000043F004038B618969039201F004010491A5
:101310000102CDE9001069462846FFF7B3F9281508
:10132000CDE90004694628460294FFF7ABF9002294
:1013300011462520FFF714FB2520FFF703FB06B01D
:1013400070BD154EB342FAD1CB6943F40033CB6183
:10135000CB6903F4003304938B6943F004038B617E
:101360008969039201F0040104910421CDE9001080
:1013700069462846FFF786F90820CDE9000469464A
:1013800028460294FFF77EF9D9E7000000380140B3
:10139000001002400008014000440040FEE7000049
:1013A0002DE9F041104F00213A4600F00DF90546B5
:1013B0000E480668F46AB5F5000F01DA00200FE068
:1013C000BD420CDA601C01F033FC294601F078FCC8
:1013D000394601F033FB01F0F3FBA04200D920466F
:1013E0007063BDE8F08100000000C8427401002075
:1013F0002DE9F05F0027DFF888A1DFF888B1B84653
:10140000BAF80000BBF800103E463D463C46084393
:1014100000D101255C49DFF87491098841B30229A4
:1014200003D0032903D018BB0FE04F4609E058480A
:101430004A460021006800F0C7F80746B0F5000FE3
:1014400001DB01242FE000242DE0524801685248BE
:10145000006801F001FD26D9504801685048006835
:1014600001F02CFD4F49884203DB01244F46A04682
:1014700019E0B0F5000F16DB4B4901F021FC49499A
:1014800001F068FA4A46002100F09EF84FF400018E
:101490000746884201DB012400E000248F4201DB83
:1014A000012600E00026394A0021384600F08CF879
:1014B0003E498146B0F5000F086001DB012700E0DE
:1014C00000273B483B490780484601F0F9FB2F497C
:1014D00001F0B4FA384908603848002101803849E1
:1014E0000A8801217AB1BAF8002002B10180BBF864
:1014F000001019B1018841F0020101801DB9018875
:1015000041F0400101802F481F4A4121018012888B
:10151000012A02D0032A02D004E0432101E041F075
:1015200004010180B8F1000F03D0018841F00801E7
:1015300001801EB1018841F0100101801FB10188B6
:1015400041F0200101801DB1018841F0800101803E
:10155000BAF8001019B9018841F480710180BBF814
:10156000001019B9018841F4007101801CB1018893
:1015700041F4006101804846BDE8F05FFFF710BF0D
:10158000FA000020FC000020E40000200000C84217
:101590001001002008010020140100201801002083
:1015A0000C0100200000A04000007041200100203C
:1015B000F8000020000040411C010020F60000203F
:1015C000EA000020F400002070B514460D460646DF
:1015D00001F042FB01D2284670BD2146304601F0A1
:1015E0003BFC01D2204670BD304670BD064A10B5A6
:1015F00053680649064C0968B1FBF4F14143506851
:10160000C01A8842FBD310BD001000E0200000206B
:1016100040420F000A4810B5016841F08071016036
:10162000084800214160016841F00101016006485D
:1016300000F027F80448BDE81040083000F021B859
:10164000FCED00E0001000E0240100201FB504467E
:1016500000200090019002900390A088009011203B
:1016600001900320039069462068FFF70BF8A188DA
:1016700000222068FFF702F91FBD81880068FFF78C
:10168000F1B81FB500210091019102910391818869
:10169000009100686946FEF7F5FF1FBD2DE9FE4F7A
:1016A0008B46804600F07EF800285DD0CC21404675
:1016B00000F092F84421404600F08EF80C20FEF72E
:1016C0001DFF404600F06EF800284DD0CC2140466A
:1016D00000F082F8BE21404600F07EF80025002789
:1016E00046463C464FF0010A3046FFF7AFFF022066
:1016F000FFF77CFF3046FFF7C4FF0A20FFF776FFB5
:101700003046FFF7BAFF81463220FFF76FFFB9F18D
:10171000000F03D00AFA04F03843C7B2641CE4B2E5
:10172000082CE1D30DF805706D1CEDB26846092D4B
:10173000D5D304460020082301468C25625C504026
:101740000022C60702D085EA500000E04008521C83
:10175000D2B2082AF5D3491CC9B29942EED39DF8FA
:101760000810884202D00020BDE8FE8FBDF90000BD
:1017700098F8061051B101F043FA6FF0030101F03F
:1017800044FC00BFCBF800000120EDE701F038FA7F
:101790006FF0070101F039FC014901F0DBF8F1E7D6
:1017A0000000204270B505460024FFF74FFF4FF4BC
:1017B000FA70FFF71BFF2846FFF763FF4620FFF78D
:1017C00015FF2846FFF759FF00B901244FF4D770E1
:1017D000FFF70CFF204670BD2DE9F0410D4607468E
:1017E0000024384615F0010F3E4609D0FFF72EFFC2
:1017F0000520FFF7FBFE3046FFF743FF3C2008E0E3
:10180000FFF724FF3C20FFF7F1FE3046FFF739FFDA
:101810000520FFF7EBFE641C6D08E4B2082CE0D352
:10182000BDE8F0812DE9F04385B000242148009403
:10183000019402940394816941F0200181618169DE
:1018400001F020010491816941F004018161816905
:1018500001F004010491816941F00801816180690E
:10186000DFF8548000F0080041F2060504900022E1
:1018700029464046FFF702F8DFF840902F1100227A
:1018800039464846FEF7FAFF0095022601250396E1
:10189000CDE9015469464046FEF7F4FE00970396F1
:1018A000CDE9015469464846FEF7ECFE05B0BDE8B7
:1018B000F083000000100240000C014000080140CD
:1018C00010B586B000241648009401940294039445
:1018D00004944FF08041059401604721C0E9011450
:1018E0004FF6FF71C0E903148461FFF71CFB08B1D8
:1018F000FEF774FD4FF48050009069460848FFF7EA
:101900006FFB08B1FEF76AFD049404A9044805942E
:10191000FFF7E8FA002801D0FEF760FD06B010BD21
:101920003401002010B58AB0002407941C216846B9
:101930000894FEF7A9FC1648144901604721C0E944
:10194000011440F2CF71C0E903148461FFF742FC37
:1019500008B1FEF743FD079407A90D480894FFF767
:10196000C1FA08B1FEF73AFD6020CDE90004029407
:101970000022694606480494FFF7C4FB08B1FEF74D
:101980002DFD0348FFF798FB0AB010BD000800408A
:10199000740100200C4810B50A4901604FF416513B
:1019A0004160002181600C22C160C0E904128161A4
:1019B000C161FFF75BFC002803D0BDE81040FEF7D3
:1019C0000DBD10BD00380140B40100200C4810B519
:1019D0000A4901604FF4E1314160002181600C222D
:1019E000C160C0E904128161C161FFF73FFC0028BA
:1019F00003D0BDE81040FEF7F1BC10BD004400402C
:101A0000F4010020FEE7000070B51A4D002468893B
:101A1000012807D16C82EC822C836C83AC836C81AF
:101A200000F07CF8A889012804D100F029F8AC81E5
:101A300000F074F82889012804D100F005F92C8100
:101A400000F06CF8E889012812D1EC8100F066F80A
:101A50001420FEF753FDBFF34F8F07480168074A74
:101A600001F4E06111430160BFF34F8F00BFFDE758
:101A700070BD0000E40000200CED00E00400FA0559
:101A8000084807490C224162074981620749C1623F
:101A900001210180428000228280C18070470000C5
:101AA00000002041E40000200000A0410000484266
:101AB00010B58A210548FEF7C5FBFFF7E1FF00F0EE
:101AC00091F8BDE8104000F029B80000580300204C
:101AD00010484188828842EA01420F494A62C2881E
:101AE000038943EA02428A624389828942EA0342C5
:101AF000CA62C2890A80028A4A80428A8A80828AAD
:101B0000CA80C28A0A81028B4A81428B8A81808B79
:101B1000C881704758030020E400002070B5284DAC
:101B2000284C2A1DA91C606AFEF7E4FC05F1080296
:101B3000A91DA06AFEF7DEFC05F10C02911EE06A09
:101B4000FEF7D8FC2088E88160882882A088688217
:101B5000E088A8822089E88260892883A089688338
:101B6000E089A88305F15402911E3635206BFEF7FB
:101B7000C1FC05F12202911E606BFEF7BBFC05F172
:101B80002602911EA06BFEF7B5FC05F12A02911EFC
:101B9000E06BFEF7AFFC208AA885608AE885A08A02
:101BA0002886E08A6886208BA886608BE886A08BD2
:101BB0002887E08B6887208CA887608CE88770BDB9
:101BC00058030020E4000020FEE7D0E90012514055
:101BD000D0E902235A4051400269406951404840CF
:101BE0007047000010B5114C1149206888420BD194
:101BF0002046FFF7EAFFA169884205D12269032A3E
:101C000002D86169012901D9002010BD094B606823
:101C10001860094BA0681860084BE0681860084815
:101C2000028008480180012010BD000000FC00086F
:101C300041524150080100200C01002010010020F9
:101C4000E4000020EA00002070B58CB01D48009030
:101C50001D4800240B94006801901C480068029005
:101C60001B48006803901B48008804901A480088AD
:101C700005906846FFF7A9FF0690FEF7EFFC079472
:101C8000164C0120CDE909400BA907A8FEF748FC36
:101C900050B96E465FF00005002356F82520214616
:101CA0000220FEF79BFC20B1FEF78EFC00200CB05A
:101CB00070BD241D6D1C072DEED3FEF785FC0120A1
:101CC000F5E7000041524150080100200C010020BE
:101CD00010010020E4000020EA00002000FC0008C1
:101CE00070477047FEF7D6BD30B58FB028216846E3
:101CF000FEF7CAFA14210AA8FEF7C6FA0121080461
:101D0000CDE900100024029402250491CDE907508A
:101D10004FF4E01009906846FEF740FF08B172B634
:101D2000FEE70F20CDE90A054FF48060CDE90C40B5
:101D300002210AA80E94FEF745FE002801D072B6D3
:101D4000FEE70FB030BD00000D48016841F0010111
:101D5000016041680B4A1140416001680A4A114024
:101D60000160016821F480210160416821F4FE01D5
:101D700041604FF41F0181600449C003086070474F
:101D8000001002400000FFF8FFFFF6FE08ED00E043
:101D900000F026BDF0B50268164B174C174D4FF0FA
:101DA0008047984205D0B84203D0A04201D0A84253
:101DB00003D122F070064A683243984205D0B842F7
:101DC00003D0A04201D0A84203D122F44074CA68D3
:101DD00022434C6922F08002224302608A68C26278
:101DE0000A688262984201D1096901630121416157
:101DF000F0BD0000002C014000040040000800403D
:101E000010B501F01F030121046A99408C4304625C
:101E1000016A9A401143016210BD10B5846842EA1C
:101E2000032224F47F440A432243826010BD826867
:101E300022F070020A4342F00701816070470000FF
:101E400030B5026A22F001020262026A43688469C4
:101E500024F073050C682C4322F002058A682A439B
:101E60000A4DA8420BD122F00805CA6823F440733A
:101E70002A434D6922F004021D438B692B434360C2
:101E8000846149684163026230BD0000002C01405A
:101E900030B5026A22F010020262026A4368846965
:101EA0000D6824F4E64444EA05248D6822F02002FB
:101EB00042EA05120B4DA8420ED1CD6822F08002F5
:101EC00042EA05124D6923F4406343EA85038D69B4
:101ED00022F0400243EA85034360846149688163DC
:101EE000026230BD002C014030B5026A22F48072DB
:101EF0000262036A4268C46923F4007324F0730524
:101F00000C682C438D6843EA05230C4DA8420ED182
:101F1000CD6823F4006343EA05234D6922F440525F
:101F200042EA05128D6923F4806342EA0512426099
:101F3000C4614968C163036230BD0000002C0140E8
:101F400030B5026A22F480520262046A4268C369B0
:101F50000D6823F4E64343EA05238D6824F4005416
:101F600044EA0534064DA84204D14D6922F480426A
:101F700042EA85124260C36149680164046230BD6F
:101F8000002C014010B5036A046A24F001040462C5
:101F9000846924F0F00444EA021423F00A020A439C
:101FA0008461026210BD10B5036A23F0100303625E
:101FB0008369046A23F4704343EA023224F0A003E5
:101FC00043EA01118261016210BD00002DE9F04178
:101FD000044600680169E26821F44051114301613F
:101FE0002169A0680843616908432168CA6841F211
:101FF0000C639A430243CA6020684169A26921F4D4
:102000004071114341611E4920686425322688428F
:1020100002D1FEF77DFD01E0FEF76AFD00EBC00195
:1020200001EB001160686FF018078000B1FBF0F25F
:10203000B2FBF5F2B1FBF0F37A4303EB8202B1FBA2
:10204000F0F306EB0212B2FBF5F2B3FBF5F302F08C
:10205000F00202EB0312B1FBF0F3B1FBF0F0B0FBC6
:10206000F5F0784303EB800006EB0010B0FBF5F0D1
:10207000216800F00F0010448860BDE8F081000086
:102080000038014000F086BBFEE70907090E002872
:1020900004DB00F1E02080F80014704700F00F002E
:1020A00000F1E02080F8141D7047000070B5064D67
:1020B00000242878012802D00624204670BD286913
:1020C000804700202870F8E72400002070B50C46F7
:1020D00009880026052925D1417805790A028178E9
:1020E0001143491C6A1E89B27C2A1BD80022228017
:1020F000032200F8012B22880023521C22806A0050
:1021000000F8012B2288521C22802A4600F072F926
:1021100018B100F06FFA064605E0208800EB450094
:10212000208000E00326304670BD10B509880024E9
:10213000052902D00324204610BD417801230A025C
:102140008178C01C1143491C89B21A4600F052F92B
:102150000028F0D000F04EFA0446ECE770B50D46CA
:102160000988002406291DD341780A028178114389
:10217000C278491C1302027989B21A434379561E68
:10218000772E0FD85606360E9E420BD10123801DA6
:1021900000F030F918B100F02DFA044603E00520F4
:1021A000288000E00324204670BD00002DE9F041A6
:1021B0001D46069B1746064629B1F72903D8134C3E
:1021C000084621710EB102251BE011492161114918
:1021D00061611149E1601149A1610021E16110498A
:1021E0002162104961621049A1622A46394600F015
:1021F00077F8050005D100F091FA28B16671012049
:1022000020702846BDE8F0810325FAE7240000206D
:10221000C5230008E12300086D2300081D230008E2
:1022200051280008F9280008B928000838B52B4CB7
:10223000207808B1062038BD684600F061FA012810
:102240004AD19DF80000E8B3012802D0022843D10A
:102250000FE0224AA369921D911CC81F984788BBB2
:1022600060782179884200D060BB022000F05EFADD
:1022700032E0A0680121194B0278A270E1700021C0
:1022800013F12C0313F8315065B1954207D103EBDC
:10229000C1014A681149891D9047E07002E0491C5C
:1022A0001029EFDB607868B1E07880B10021E1802F
:1022B000A17841F08002A1680A70E288521C92B2B3
:1022C000E28000E008E08854E088401CE080D4E927
:1022D0000213E28820799847002038BD24000020AE
:1022E00070B51546084600240822294600F02EFA4B
:1022F00001280DD1B5F5964F01D9232003E00649F9
:102300006800B1FBF0F080B200F084FA012800D040
:102310000324204670BD0000A07F17002DE9F04186
:10232000104C07461646A08888460025FF2801D98C
:10233000FDF77DFFA088042804D3A1880A4800F097
:1023400065F918B105252846BDE8F08106480078F2
:102350003870A088C01E30800348401CC8F80000B8
:10236000F1E70000D00000205802002070B5134CA7
:10237000034600256078012802D00525284670BD57
:10238000491E0126A160084666800B7061881144D1
:102390006180618800F03AF96188094A5318491C44
:1023A00061801870010A60880244401C60801170CE
:1023B00026700121002000F03FF9DFE7D000002067
:1023C00058020020054910B5002048700146012040
:1023D00000F032F9BDE8104000F07CB9D0000020D8
:1023E00010B50021084600F027F9BDE8104000F0C4
:1023F00063B900002DE9F0411746054619B1C81927
:10240000401E442802DD0120BDE8F081174E0C4635
:1024100013B1012B14D027E0FFF780FB00200CE064
:1024200036F81410090A05F8011B16F81410641C7C
:10243000401C05F8011BA4B280B2B842F0D313E0EF
:1024400000200DE015F8011B090226F8141015F8FC
:10245000012B114326F81410641C401CA4B280B256
:10246000B842EFD3FFF734FB0020CDE7580300203C
:102470001CB5FEF717FAFFF737FCFFF7D3F9FFF7A4
:102480001FFAFFF74FFAFFF785FAFFF79FFA0021CF
:102490004D48FEF7CFFE0020FEF782FFFFF708FB56
:1024A000FFF7B8F800254FF416532A460C212846AA
:1024B0000095FFF77BFE08B9FFF7F8FDDFF80CA1E8
:1024C000434FDFF810B1DFF81081444C4FF47A76B7
:1024D0004FF6FF7900950195FFF7A8FEFFF794FAF4
:1024E000FEF7D2F92169401AB0425DD3FEF7CCF96C
:1024F0002061A0886946401CA0803948FFF7CEF8CB
:1025000038B90A20FDF7FAFF69463548FFF7C6F8E3
:1025100040B1E088401CE0803248009901603D8075
:10252000258110E0BAF80000484502D2401CAAF804
:1025300000002089484501D2401C208180B2052836
:1025400001D3012038801420FDF7D8FF208801A98D
:10255000401C20802448FFF7A1F838B90A20FDF775
:10256000CDFF01A92048FFF799F848B160881F49BD
:10257000401C608001980860A8F80050658111E057
:10258000BBF80000484502D2401CABF8000060894F
:10259000484501D2401C608180B2052802D3012049
:1025A000A8F80000FEF724FFFEF76EF9E168401A74
:1025B00064288FD3FEF768F9E0604FF480510C482F
:1025C000FEF755F986E7000074010020FE000020A8
:1025D000FA00002000010020FC0000200000002084
:1025E00024010020140100202C01002018010020EB
:1025F000000C0140002804D0012803D0072803D094
:1026000004207047022070470620704770B5094DBE
:10261000FF231A4605F5807606E000BF10F8014B4F
:1026200054402A5D5A40335D491E89B2F6D242EACF
:10263000032070BD9E300008F8B506461B481C4AB2
:102640001C4C0025B9B1012111700A460221FEF788
:1026500015F94FF4FA6100950098401C00908842EB
:10266000FADB2068C16821F02001C1602068C168E0
:1026700041F0800118E02168CB6823F08003CB6033
:10268000117829B121680B68DB435B06FBD4157018
:1026900000220221FEF7F2F82068C16816B141F06D
:1026A000200101E021F02001C160F8BD000C0140D3
:1026B000DE000020B401002010B50548FEF77BFCC9
:1026C00003480021026851620068891E016110BD43
:1026D000340100200848002102685162074902685D
:1026E0000988491ED162C16000686FF00101016173
:1026F0000148FEF74FBC000034010020E00000203C
:102700000549024600204B78002B04D00878107051
:102710000020487001207047DC00002002490020A2
:102720004870012070470000DC00002002490122AF
:102730004A70087010467047DC0000200249497852
:102740000170012070470000DE00002010B500225B
:1027500002210948FEF792F808490020087008484D
:102760000168CA6822F02002CA600068C16821F0CE
:102770008001C160012010BD000C0140DE0000207E
:10278000B401002002490968486001207047000038
:10279000B401002010B50E4C20680168C9438906B9
:1027A00008D4C168890605D540680A4948700A48B6
:1027B0000068804720680168C943090607D4C068DB
:1027C000000604D505480068BDE81040004710BD6C
:1027D000B4010020DE00002044000020480000205A
:1027E0000A4810B500680169C943C9070DD1C1681D
:1027F000C943C90709D1891E01610448FEF7DBFB03
:1028000003480068BDE81040004710BD34010020B7
:102810004C00002010B500EBC00101EB00100A4C89
:102820004FF6FF7101EA400020800848FEF7C3FB25
:10283000064800210268516221880268491ED1625F
:10284000C160012010BD0000E00000203401002024
:1028500038B5174C0025207808B1FDF7E8FC68462C
:10286000FFF76CFF607830B1124A012807D00228C8
:1028700010D0032801D1FFF72DFF284638BD0020D6
:10288000A0809DF80000A1880A44491CA180107016
:1028900002200BE0A088FF2807D89DF80010A08830
:1028A0000244401CA0801170E5E703206070E2E75D
:1028B000D00000205802002070B50E4D002468782A
:1028C00070B102280BD003280DD0687858B1687811
:1028D000022808D06878032805D0FDF7A8FC01205D
:1028E000FFF724FF0446FFF7E7FE0120687020464B
:1028F00070BD0000D000002070B5154C0025607838
:10290000012801D0FDF793FC207810B101281CD1DB
:1029100004E000210120FFF78FFE16E0608850B12F
:10292000A0680078FFF72EFFA068401CA0606088B8
:10293000401E608009E00320FFF7F8FE05460021F5
:102940000120FFF779FE00202070284670BD0000AE
:10295000D000002090EA010F48BF81F0004100F153
:10296000B482421A3CBF801A89184FEAD0524FF005
:102970007F4C1CEA410FA2EBD15318BF9CEA026FB7
:1029800000F03B804FF0004C4CEA00204CEA012163
:1029900021FA03FC10EB0C0C1ED202F1FF325FEAAD
:1029A0001C2040EBC25038BF70471CF07F0F4FEA2D
:1029B000400C18BFBCF17F4F38BF7047C3F12003F4
:1029C000994008BF20F00100BCF17F4F38BF70472D
:1029D000A0F1C04000F03BBA4FEA3C00000A40EBD7
:1029E000C25028BF1CF0FF0F4FEA400CE6D018BFC2
:1029F000BCF17F4F38BF7047EAE79CEA026F05D011
:102A000010EA5C0F08BF00F00040704710B500F0FE
:102A1000D8F900BF64FBBE3E014800F0C4BA00BF55
:102A20000000C07F401058BFC0F14040491058BF5F
:102A3000C1F140418142EFF3008070474FF47F0CB9
:102A40001CEAD0121EBF1CEAD11392EA0C0F93EAC3
:102A50000C0F00F0858090EA010F48BF42F48072AD
:102A600040F4000C41F400002CF07F4120F07F4046
:102A700000B58142A2EB03020FF2081CACEB504EF2
:102A8000C0F100009EF800E04FEA4E0E00FB0EFC85
:102A900038BF49004FEA2C1C02F5FA020CFB0EF37A
:102AA0004FEACE1E4FEA112C4FEAC1210EEB635EB6
:102AB00042EB22420EFB0CFC4FEA1C5300FB0311BD
:102AC0004FEA112C4FEA01310EFB0CFC4FEADC4CB3
:102AD00000FB0C11C14228BF09184CEB03335DF811
:102AE00004EB10EB410143EBC250B2F57C0F38BF51
:102AF000704729D512F0F00F1CBF00F1C04000F064
:102B000000407047008182838485868788898B8C0A
:102B10008D8E8F919293959697999A9C9D9FA0A246
:102B2000A3A5A7A8AAACAEB0B2B3B5B7B9BCBEC096
:102B3000C2C5C7C9CCCED1D4D7D9DCDFE2E6E9EC37
:102B4000F0F3F7FAFE0000004FEA400C0CF1807C35
:102B5000BCF17E4F28BF7047B0F1C04000F077B99C
:102B600090EA010F0CEAD11348BF42F4807262452B
:102B700038BF634507D213F47F0F16D080EA0100F7
:102B800000F00040704710B500F01BF9097EFC3ED4
:102B900000F005B880EA010000F00040704780EACC
:102BA000010000F0004000F052B912F47F0F04BFA2
:102BB0000248704780EA010000F049B90000C07F78
:102BC000C10DD1F19E0206DB4FEA002343F0004322
:102BD00023FA02F07047004207D54FEA4001B1F1F5
:102BE000FE4F02D24FF00000704710B500F0E9F838
:102BF00049922480002070476FEA2000704700004F
:102C000010F0004148BF4042B0FA80F310FA03F2DE
:102C1000C3F19D030BD051EAC35101EB12205306BF
:102C200038BF704700F1010008BF20F00100704775
:102C3000B0FA80F310FA03F2C3F19D030AD0D9056C
:102C400001EB1220530638BF704700F1010008BFA6
:102C500020F001007047000050EA010C00F11380E1
:102C60001CF5000F58BFBCF5000F01D48842704717
:102C700007D710F5000F58BF11F5000F15D4884283
:102C80007047894270471CF5000F04D5BCF5000F52
:102C9000F7D5814270474FF0807C1CEB400F38BF66
:102CA0001CEB410F01D28142704710B500F089F84A
:102CB000922449004FF000504FF08051FFF7B2BE10
:102CC0004FF47F0C1CEAD0121EBF1CEAD11392EA0B
:102CD0000C0F93EA0C0F00F0478090EA010F48BFF9
:102CE00042F480724FF0004C4CEA00204CEA012183
:102CF00002EB0302A0FB0113A2F50002002918BF9A
:102D000043F001035B0028BF4FEA330342EB22424A
:102D10005FEA132C4CEBC2502EBFBCEB436FB2F5F5
:102D20007C0F70474FEA036CBCF1004F08BF20F0E6
:102D30000100B2F57C0F38BF70470BD582F0FF025F
:102D400012F5803FC8BF704700F1C040D8BF00F007
:102D50000040704700F5000C5FEA4C0C48BF70471C
:102D6000B0F1C04000F073B890EA010F0CEAD11343
:102D700048BF42F48072624538BF634504D280EA9E
:102D8000010000F00040704710B500F01AF800BFD5
:102D90008900013E00F007B800F009B85FEA410C75
:102DA0005FEA1C6C08D080EA010000F050B85FEACE
:102DB000400C5FEA1C6CF6D14FF00040A0F580009B
:102DC00070470EF1020E2EF0030E5EF8044B244203
:102DD00004D44FEA4102B2F17F4F11D84FEA4003C9
:102DE000B3F17F4F0CD80ED14FEAD07CB2F17F4FB8
:102DF0000CEB4C0C0CF1020C08BF4CEBD17C04E04A
:102E00004FF0080C01E04FEAD17C0CEB4C0324FAA4
:102E100003F404F00704B4F1040C06D20EEB840CA6
:102E2000BDE810404CF0010C6047DFE80CF00708EB
:102E300002024FF00040A0F5800010BD084642009D
:102E400018BFD2F1807288BF00F0004010BDFF2192
:102E500041EAD050C005704751EA000C00F11380E0
:102E60001CF5000F58BFBCF5000F01D4814270471C
:102E700007D711F5000F58BF10F5000F15D4814288
:102E80007047894270471CF5000F04D5BCF5000F50
:102E9000F7D5884270474FF0807C1CEB410F38BF5C
:102EA0001CEB400F01D28842704780EA010081EAA2
:102EB000000180EA0100FFF7F8BE000090EA010F70
:102EC00048BF81F000413FF54CAD421A04D882F072
:102ED0000042A0EB020011444FEAD0524FF07F4C69
:102EE0001CEA410FA2EBD15318BF9CEA026F4AD0F3
:102EF0004FF0004C4CEA00204CEA012121FA03FC7F
:102F0000B0EB0C0C0FD412F0FE0F36D05FEA4C0081
:102F10001DD5001240EBC25038BF70471CF03F0F68
:102F200018BF70470BE0A2F101025FEA1C2040EBE2
:102F3000C25038BF70471CF07F0F18BF7047C3F1F5
:102F40002003994014BF401E20F001007047800804
:102F50004FEA122308BF7047B0FA80FCA2EB0C02C4
:102F6000CCF1280C60FA0CF093EA122F04BF00EBAE
:102F7000C25070474FEAC3707047130A5FEADC1013
:102F800008BF7047F6E79CEA026F04D010EA5C0FB6
:102F900008BF0020704710B5FFF713FF40DFF63E73
:102FA00081F0004070470CF00F03092B08BF082088
:102FB00000F051800A2B0BD0082B18BF704708BFB8
:102FC0001CF0400F0AD04FF000004FF00001704796
:102FD0001CF0400F18BF4FF0004070471CF0100F5E
:102FE00008D020F0704300F07F4242EAD3014FEA5C
:102FF0004370704700F0604021F07F4242EA0002D7
:1030000001F07F4040EA727070474FF0FF0212EA11
:10301000D0521CBF92F0FF038B42C2BFD14200EBE3
:10302000C1507047002A0AD0002B0BD0002900F0B5
:103030000040A4BF40F0FE4040F40000704700F0A4
:103040000040704743024FF00B0C18BF4CF0806CEF
:103050007FF4E2AC70471CF4801F11D01CF4E02F09
:1030600003D06FEACC31490070474FF04050EFF386
:10307000008222F0704242EA000282F30088704728
:103080004FF0000070470000000000000000010247
:10309000030406070809000000000102030400C140
:1030A000814001C0804101C0804100C1814001C018
:1030B000804100C1814000C1814001C0804101C008
:1030C000804100C1814000C1814001C0804100C1F8
:1030D000814001C0804101C0804100C1814001C0E8
:1030E000804100C1814000C1814001C0804100C1D8
:1030F000814001C0804101C0804100C1814000C1C8
:10310000814001C0804101C0804100C1814001C0B7
:10311000804100C1814000C1814001C0804101C0A7
:10312000804100C1814000C1814001C0804100C197
:10313000814001C0804101C0804100C1814000C187
:10314000814001C0804101C0804100C1814001C077
:10315000804100C1814000C1814001C0804100C167
:10316000814001C0804101C0804100C1814001C057
:10317000804100C1814000C1814001C0804101C047
:10318000804100C1814000C1814001C0804100C137
:10319000814001C0804101C0804100C1814000C028
:1031A000C101C30302C2C60607C705C5C404CC0CCF
:1031B0000DCD0FCFCE0E0ACACB0BC90908C8D8183F
:1031C00019D91BDBDA1A1EDEDF1FDD1D1CDC14D44F
:1031D000D515D71716D6D21213D311D1D010F0307F
:1031E00031F133F3F23236F6F737F53534F43CFC8F
:1031F000FD3DFF3F3EFEFA3A3BFB39F9F83828E83F
:10320000E929EB2B2AEAEE2E2FEF2DEDEC2CE4240E
:1032100025E527E7E62622E2E323E12120E0A0607E
:1032200061A163A3A26266A6A767A56564A46CAC4E
:10323000AD6DAF6F6EAEAA6A6BAB69A9A86878B8BE
:10324000B979BB7B7ABABE7E7FBF7DBDBC7CB474CE
:1032500075B577B7B67672B2B373B17170B050907E
:1032600091519353529296565797559594549C5C0E
:103270005D9D5F9F9E5E5A9A9B5B995958988848BE
:1032800049894B8B8A4A4E8E8F4F8D4D4C8C44848E
:1032900085458747468682424383418180400000BE
:1032A000C03200080000002034010000280100089E
:1032B00008330008340100201409000084010008CC
:1032C0000114320182101324F4022B02320313CDB5
:1032D000202A0840135D213308061A2B08017C12AE
:1032E000015A0CD6091620412320411AA004234874
:1032F000421ECC419A99F90C1A4004313C08014015
:08330000251D0C014004090029
:04000005080000ED02
:00000001FF
